{
  "_format": "hh-sol-artifact-1",
  "contractName": "CyberViserToken",
  "sourceName": "contracts/CVTToken.sol",
  "abi": [
    {
      "inputs": [],
      "stateMutability": "nonpayable",
      "type": "constructor"
    },
    {
      "inputs": [
        {
          "internalType": "address",
          "name": "spender",
          "type": "address"
        },
        {
          "internalType": "uint256",
          "name": "allowance",
          "type": "uint256"
        },
        {
          "internalType": "uint256",
          "name": "needed",
          "type": "uint256"
        }
      ],
      "name": "ERC20InsufficientAllowance",
      "type": "error"
    },
    {
      "inputs": [
        {
          "internalType": "address",
          "name": "sender",
          "type": "address"
        },
        {
          "internalType": "uint256",
          "name": "balance",
          "type": "uint256"
        },
        {
          "internalType": "uint256",
          "name": "needed",
          "type": "uint256"
        }
      ],
      "name": "ERC20InsufficientBalance",
      "type": "error"
    },
    {
      "inputs": [
        {
          "internalType": "address",
          "name": "approver",
          "type": "address"
        }
      ],
      "name": "ERC20InvalidApprover",
      "type": "error"
    },
    {
      "inputs": [
        {
          "internalType": "address",
          "name": "receiver",
          "type": "address"
        }
      ],
      "name": "ERC20InvalidReceiver",
      "type": "error"
    },
    {
      "inputs": [
        {
          "internalType": "address",
          "name": "sender",
          "type": "address"
        }
      ],
      "name": "ERC20InvalidSender",
      "type": "error"
    },
    {
      "inputs": [
        {
          "internalType": "address",
          "name": "spender",
          "type": "address"
        }
      ],
      "name": "ERC20InvalidSpender",
      "type": "error"
    },
    {
      "inputs": [],
      "name": "EnforcedPause",
      "type": "error"
    },
    {
      "inputs": [],
      "name": "ExpectedPause",
      "type": "error"
    },
    {
      "inputs": [
        {
          "internalType": "address",
          "name": "owner",
          "type": "address"
        }
      ],
      "name": "OwnableInvalidOwner",
      "type": "error"
    },
    {
      "inputs": [
        {
          "internalType": "address",
          "name": "account",
          "type": "address"
        }
      ],
      "name": "OwnableUnauthorizedAccount",
      "type": "error"
    },
    {
      "anonymous": false,
      "inputs": [
        {
          "indexed": true,
          "internalType": "address",
          "name": "account",
          "type": "address"
        }
      ],
      "name": "AddressBlacklisted",
      "type": "event"
    },
    {
      "anonymous": false,
      "inputs": [
        {
          "indexed": true,
          "internalType": "address",
          "name": "account",
          "type": "address"
        }
      ],
      "name": "AddressWhitelisted",
      "type": "event"
    },
    {
      "anonymous": false,
      "inputs": [
        {
          "indexed": true,
          "internalType": "address",
          "name": "owner",
          "type": "address"
        },
        {
          "indexed": true,
          "internalType": "address",
          "name": "spender",
          "type": "address"
        },
        {
          "indexed": false,
          "internalType": "uint256",
          "name": "value",
          "type": "uint256"
        }
      ],
      "name": "Approval",
      "type": "event"
    },
    {
      "anonymous": false,
      "inputs": [
        {
          "indexed": true,
          "internalType": "address",
          "name": "minter",
          "type": "address"
        }
      ],
      "name": "MinterAdded",
      "type": "event"
    },
    {
      "anonymous": false,
      "inputs": [
        {
          "indexed": true,
          "internalType": "address",
          "name": "minter",
          "type": "address"
        }
      ],
      "name": "MinterRemoved",
      "type": "event"
    },
    {
      "anonymous": false,
      "inputs": [
        {
          "indexed": true,
          "internalType": "address",
          "name": "previousOwner",
          "type": "address"
        },
        {
          "indexed": true,
          "internalType": "address",
          "name": "newOwner",
          "type": "address"
        }
      ],
      "name": "OwnershipTransferred",
      "type": "event"
    },
    {
      "anonymous": false,
      "inputs": [
        {
          "indexed": false,
          "internalType": "address",
          "name": "account",
          "type": "address"
        }
      ],
      "name": "Paused",
      "type": "event"
    },
    {
      "anonymous": false,
      "inputs": [
        {
          "indexed": true,
          "internalType": "address",
          "name": "from",
          "type": "address"
        },
        {
          "indexed": false,
          "internalType": "uint256",
          "name": "amount",
          "type": "uint256"
        }
      ],
      "name": "TokensBurned",
      "type": "event"
    },
    {
      "anonymous": false,
      "inputs": [
        {
          "indexed": true,
          "internalType": "address",
          "name": "from",
          "type": "address"
        },
        {
          "indexed": true,
          "internalType": "address",
          "name": "to",
          "type": "address"
        },
        {
          "indexed": false,
          "internalType": "uint256",
          "name": "value",
          "type": "uint256"
        }
      ],
      "name": "Transfer",
      "type": "event"
    },
    {
      "anonymous": false,
      "inputs": [
        {
          "indexed": false,
          "internalType": "address",
          "name": "account",
          "type": "address"
        }
      ],
      "name": "Unpaused",
      "type": "event"
    },
    {
      "inputs": [],
      "name": "MAX_SUPPLY",
      "outputs": [
        {
          "internalType": "uint256",
          "name": "",
          "type": "uint256"
        }
      ],
      "stateMutability": "view",
      "type": "function"
    },
    {
      "inputs": [
        {
          "internalType": "address",
          "name": "minter",
          "type": "address"
        }
      ],
      "name": "addMinter",
      "outputs": [],
      "stateMutability": "nonpayable",
      "type": "function"
    },
    {
      "inputs": [
        {
          "internalType": "address",
          "name": "owner",
          "type": "address"
        },
        {
          "internalType": "address",
          "name": "spender",
          "type": "address"
        }
      ],
      "name": "allowance",
      "outputs": [
        {
          "internalType": "uint256",
          "name": "",
          "type": "uint256"
        }
      ],
      "stateMutability": "view",
      "type": "function"
    },
    {
      "inputs": [
        {
          "internalType": "address",
          "name": "spender",
          "type": "address"
        },
        {
          "internalType": "uint256",
          "name": "value",
          "type": "uint256"
        }
      ],
      "name": "approve",
      "outputs": [
        {
          "internalType": "bool",
          "name": "",
          "type": "bool"
        }
      ],
      "stateMutability": "nonpayable",
      "type": "function"
    },
    {
      "inputs": [
        {
          "internalType": "address",
          "name": "account",
          "type": "address"
        }
      ],
      "name": "balanceOf",
      "outputs": [
        {
          "internalType": "uint256",
          "name": "",
          "type": "uint256"
        }
      ],
      "stateMutability": "view",
      "type": "function"
    },
    {
      "inputs": [
        {
          "internalType": "address",
          "name": "account",
          "type": "address"
        }
      ],
      "name": "blacklist",
      "outputs": [],
      "stateMutability": "nonpayable",
      "type": "function"
    },
    {
      "inputs": [
        {
          "internalType": "address",
          "name": "",
          "type": "address"
        }
      ],
      "name": "blacklisted",
      "outputs": [
        {
          "internalType": "bool",
          "name": "",
          "type": "bool"
        }
      ],
      "stateMutability": "view",
      "type": "function"
    },
    {
      "inputs": [
        {
          "internalType": "uint256",
          "name": "amount",
          "type": "uint256"
        }
      ],
      "name": "burn",
      "outputs": [],
      "stateMutability": "nonpayable",
      "type": "function"
    },
    {
      "inputs": [],
      "name": "decimals",
      "outputs": [
        {
          "internalType": "uint8",
          "name": "",
          "type": "uint8"
        }
      ],
      "stateMutability": "view",
      "type": "function"
    },
    {
      "inputs": [
        {
          "internalType": "address",
          "name": "to",
          "type": "address"
        },
        {
          "internalType": "uint256",
          "name": "amount",
          "type": "uint256"
        }
      ],
      "name": "mint",
      "outputs": [],
      "stateMutability": "nonpayable",
      "type": "function"
    },
    {
      "inputs": [
        {
          "internalType": "address",
          "name": "",
          "type": "address"
        }
      ],
      "name": "minters",
      "outputs": [
        {
          "internalType": "bool",
          "name": "",
          "type": "bool"
        }
      ],
      "stateMutability": "view",
      "type": "function"
    },
    {
      "inputs": [],
      "name": "name",
      "outputs": [
        {
          "internalType": "string",
          "name": "",
          "type": "string"
        }
      ],
      "stateMutability": "view",
      "type": "function"
    },
    {
      "inputs": [],
      "name": "owner",
      "outputs": [
        {
          "internalType": "address",
          "name": "",
          "type": "address"
        }
      ],
      "stateMutability": "view",
      "type": "function"
    },
    {
      "inputs": [],
      "name": "pause",
      "outputs": [],
      "stateMutability": "nonpayable",
      "type": "function"
    },
    {
      "inputs": [],
      "name": "paused",
      "outputs": [
        {
          "internalType": "bool",
          "name": "",
          "type": "bool"
        }
      ],
      "stateMutability": "view",
      "type": "function"
    },
    {
      "inputs": [],
      "name": "remainingSupply",
      "outputs": [
        {
          "internalType": "uint256",
          "name": "",
          "type": "uint256"
        }
      ],
      "stateMutability": "view",
      "type": "function"
    },
    {
      "inputs": [
        {
          "internalType": "address",
          "name": "minter",
          "type": "address"
        }
      ],
      "name": "removeMinter",
      "outputs": [],
      "stateMutability": "nonpayable",
      "type": "function"
    },
    {
      "inputs": [],
      "name": "renounceOwnership",
      "outputs": [],
      "stateMutability": "nonpayable",
      "type": "function"
    },
    {
      "inputs": [],
      "name": "symbol",
      "outputs": [
        {
          "internalType": "string",
          "name": "",
          "type": "string"
        }
      ],
      "stateMutability": "view",
      "type": "function"
    },
    {
      "inputs": [],
      "name": "totalSupply",
      "outputs": [
        {
          "internalType": "uint256",
          "name": "",
          "type": "uint256"
        }
      ],
      "stateMutability": "view",
      "type": "function"
    },
    {
      "inputs": [
        {
          "internalType": "address",
          "name": "to",
          "type": "address"
        },
        {
          "internalType": "uint256",
          "name": "value",
          "type": "uint256"
        }
      ],
      "name": "transfer",
      "outputs": [
        {
          "internalType": "bool",
          "name": "",
          "type": "bool"
        }
      ],
      "stateMutability": "nonpayable",
      "type": "function"
    },
    {
      "inputs": [
        {
          "internalType": "address",
          "name": "from",
          "type": "address"
        },
        {
          "internalType": "address",
          "name": "to",
          "type": "address"
        },
        {
          "internalType": "uint256",
          "name": "value",
          "type": "uint256"
        }
      ],
      "name": "transferFrom",
      "outputs": [
        {
          "internalType": "bool",
          "name": "",
          "type": "bool"
        }
      ],
      "stateMutability": "nonpayable",
      "type": "function"
    },
    {
      "inputs": [
        {
          "internalType": "address",
          "name": "newOwner",
          "type": "address"
        }
      ],
      "name": "transferOwnership",
      "outputs": [],
      "stateMutability": "nonpayable",
      "type": "function"
    },
    {
      "inputs": [],
      "name": "unpause",
      "outputs": [],
      "stateMutability": "nonpayable",
      "type": "function"
    },
    {
      "inputs": [
        {
          "internalType": "address",
          "name": "account",
          "type": "address"
        }
      ],
      "name": "whitelist",
      "outputs": [],
      "stateMutability": "nonpayable",
      "type": "function"
    }
  ],
  "bytecode": "0x60806040523480156200001157600080fd5b50336040518060400160405280601081526020016f21bcb132b92b34b9b2b9102a37b5b2b760811b8152506040518060400160405280600381526020016210d59560ea1b8152508160039081620000699190620004a9565b506004620000788282620004a9565b5050506001600160a01b038116620000ab57604051631e4fbdf760e01b8152600060048201526024015b60405180910390fd5b620000b68162000114565b50620000ce336a18d0bf423c03d8de0000006200016e565b33600081815260066020526040808220805460ff19166001179055517f6ae172837ea30b801fbfcdd4108aa1d5bf8ff775444fd70256b44e6bf3dfc3f69190a26200059d565b600580546001600160a01b03838116610100818102610100600160a81b031985161790945560405193909204169182907f8be0079c531659141344cd1fd0a4f28419497f9722a3daafe3b4186f6b6457e090600090a35050565b6001600160a01b0382166200019a5760405163ec442f0560e01b815260006004820152602401620000a2565b620001a860008383620001ac565b5050565b6001600160a01b03831660009081526007602052604090205460ff1615620002175760405162461bcd60e51b815260206004820152601a60248201527f4356543a2053656e64657220697320626c61636b6c69737465640000000000006044820152606401620000a2565b6001600160a01b03821660009081526007602052604090205460ff1615620002825760405162461bcd60e51b815260206004820152601d60248201527f4356543a20526563697069656e7420697320626c61636b6c69737465640000006044820152606401620000a2565b6200028f83838362000294565b505050565b6200029e620002ab565b6200028f838383620002d2565b60055460ff1615620002d05760405163d93c066560e01b815260040160405180910390fd5b565b6001600160a01b03831662000301578060026000828254620002f5919062000575565b90915550620003759050565b6001600160a01b03831660009081526020819052604090205481811015620003565760405163391434e360e21b81526001600160a01b03851660048201526024810182905260448101839052606401620000a2565b6001600160a01b03841660009081526020819052604090209082900390555b6001600160a01b0382166200039357600280548290039055620003b2565b6001600160a01b03821660009081526020819052604090208054820190555b816001600160a01b0316836001600160a01b03167fddf252ad1be2c89b69c2b068fc378daa952ba7f163c4a11628f55a4df523b3ef83604051620003f891815260200190565b60405180910390a3505050565b634e487b7160e01b600052604160045260246000fd5b600181811c908216806200043057607f821691505b6020821081036200045157634e487b7160e01b600052602260045260246000fd5b50919050565b601f8211156200028f57600081815260208120601f850160051c81016020861015620004805750805b601f850160051c820191505b81811015620004a1578281556001016200048c565b505050505050565b81516001600160401b03811115620004c557620004c562000405565b620004dd81620004d684546200041b565b8462000457565b602080601f831160018114620005155760008415620004fc5750858301515b600019600386901b1c1916600185901b178555620004a1565b600085815260208120601f198616915b82811015620005465788860151825594840194600190910190840162000525565b5085821015620005655787850151600019600388901b60f8161c191681555b5050505050600190811b01905550565b808201808211156200059757634e487b7160e01b600052601160045260246000fd5b92915050565b610fc780620005ad6000396000f3fe608060405234801561001057600080fd5b50600436106101735760003560e01c8063715018a6116100de578063a9059cbb11610097578063dd62ed3e11610071578063dd62ed3e1461031b578063f2fde38b14610354578063f46eccc414610367578063f9f92be41461038a57600080fd5b8063a9059cbb146102dd578063da0239a6146102f0578063dbac26e9146102f857600080fd5b8063715018a6146102765780638456cb591461027e5780638da5cb5b1461028657806395d89b41146102af578063983b2d56146102b75780639b19251a146102ca57600080fd5b806332cb6b0c1161013057806332cb6b0c146102025780633f4ba83a1461021457806340c10f191461021c57806342966c681461022f5780635c975abb1461024257806370a082311461024d57600080fd5b806306fdde0314610178578063095ea7b31461019657806318160ddd146101b957806323b872dd146101cb5780633092afd5146101de578063313ce567146101f3575b600080fd5b61018061039d565b60405161018d9190610ddd565b60405180910390f35b6101a96101a4366004610e47565b61042f565b604051901515815260200161018d565b6002545b60405190815260200161018d565b6101a96101d9366004610e71565b610449565b6101f16101ec366004610ead565b61046d565b005b6040516012815260200161018d565b6101bd6a52b7d2dcc80cd2e400000081565b6101f16104be565b6101f161022a366004610e47565b6104d0565b6101f161023d366004610ecf565b61060d565b60055460ff166101a9565b6101bd61025b366004610ead565b6001600160a01b031660009081526020819052604090205490565b6101f161064f565b6101f1610661565b60055461010090046001600160a01b03166040516001600160a01b03909116815260200161018d565b610180610671565b6101f16102c5366004610ead565b610680565b6101f16102d8366004610ead565b61071e565b6101a96102eb366004610e47565b61076f565b6101bd61077d565b6101a9610306366004610ead565b60076020526000908152604090205460ff1681565b6101bd610329366004610ee8565b6001600160a01b03918216600090815260016020908152604080832093909416825291909152205490565b6101f1610362366004610ead565b6107a2565b6101a9610375366004610ead565b60066020526000908152604090205460ff1681565b6101f1610398366004610ead565b6107e0565b6060600380546103ac90610f1b565b80601f01602080910402602001604051908101604052809291908181526020018280546103d890610f1b565b80156104255780601f106103fa57610100808354040283529160200191610425565b820191906000526020600020905b81548152906001019060200180831161040857829003601f168201915b5050505050905090565b60003361043d818585610834565b60019150505b92915050565b600033610457858285610846565b6104628585856108c5565b506001949350505050565b610475610924565b6001600160a01b038116600081815260066020526040808220805460ff19169055517fe94479a9f7e1952cc78f2d6baab678adc1b772d936c6583def489e524cb666929190a250565b6104c6610924565b6104ce610957565b565b3360009081526006602052604090205460ff166105285760405162461bcd60e51b815260206004820152601160248201527021ab2a1d102737ba10309036b4b73a32b960791b60448201526064015b60405180910390fd5b6a52b7d2dcc80cd2e40000008161053e60025490565b6105489190610f6b565b11156105965760405162461bcd60e51b815260206004820152601860248201527f4356543a204d617820737570706c792065786365656465640000000000000000604482015260640161051f565b6001600160a01b03821660009081526007602052604090205460ff16156105ff5760405162461bcd60e51b815260206004820152601d60248201527f4356543a20526563697069656e7420697320626c61636b6c6973746564000000604482015260640161051f565b61060982826109a9565b5050565b61061733826109df565b60405181815233907ffd38818f5291bf0bb3a2a48aadc06ba8757865d1dabd804585338aab3009dcb69060200160405180910390a250565b610657610924565b6104ce6000610a15565b610669610924565b6104ce610a6f565b6060600480546103ac90610f1b565b610688610924565b6001600160a01b0381166106d25760405162461bcd60e51b81526020600482015260116024820152704356543a205a65726f206164647265737360781b604482015260640161051f565b6001600160a01b038116600081815260066020526040808220805460ff19166001179055517f6ae172837ea30b801fbfcdd4108aa1d5bf8ff775444fd70256b44e6bf3dfc3f69190a250565b610726610924565b6001600160a01b038116600081815260076020526040808220805460ff19169055517f4f783c179409b4127238bc9c990bc99b9a651666a0d20b51d6c42849eb88466d9190a250565b60003361043d8185856108c5565b600061078860025490565b61079d906a52b7d2dcc80cd2e4000000610f7e565b905090565b6107aa610924565b6001600160a01b0381166107d457604051631e4fbdf760e01b81526000600482015260240161051f565b6107dd81610a15565b50565b6107e8610924565b6001600160a01b038116600081815260076020526040808220805460ff19166001179055517fdaf49ab9345b6cb75bcb5a7f726bff9183c34dcf5c098c385730f9fd893765f69190a250565b6108418383836001610aac565b505050565b6001600160a01b038381166000908152600160209081526040808320938616835292905220546000198110156108bf57818110156108b057604051637dc7a0d960e11b81526001600160a01b0384166004820152602481018290526044810183905260640161051f565b6108bf84848484036000610aac565b50505050565b6001600160a01b0383166108ef57604051634b637e8f60e11b81526000600482015260240161051f565b6001600160a01b0382166109195760405163ec442f0560e01b81526000600482015260240161051f565b610841838383610b81565b6005546001600160a01b036101009091041633146104ce5760405163118cdaa760e01b815233600482015260240161051f565b61095f610c5e565b6005805460ff191690557f5db9ee0a495bf2e6ff9c91a7834c1ba4fdd244a5e8aa4e537bd38aeae4b073aa335b6040516001600160a01b03909116815260200160405180910390a1565b6001600160a01b0382166109d35760405163ec442f0560e01b81526000600482015260240161051f565b61060960008383610b81565b6001600160a01b038216610a0957604051634b637e8f60e11b81526000600482015260240161051f565b61060982600083610b81565b600580546001600160a01b03838116610100818102610100600160a81b031985161790945560405193909204169182907f8be0079c531659141344cd1fd0a4f28419497f9722a3daafe3b4186f6b6457e090600090a35050565b610a77610c81565b6005805460ff191660011790557f62e78cea01bee320cd4e420270b5ea74000d11b0c9f74754ebdbfc544b05a25861098c3390565b6001600160a01b038416610ad65760405163e602df0560e01b81526000600482015260240161051f565b6001600160a01b038316610b0057604051634a1406b160e11b81526000600482015260240161051f565b6001600160a01b03808516600090815260016020908152604080832093871683529290522082905580156108bf57826001600160a01b0316846001600160a01b03167f8c5be1e5ebec7d5bd14f71427d1e84f3dd0314c0f7b2291e5b200ac8c7c3b92584604051610b7391815260200190565b60405180910390a350505050565b6001600160a01b03831660009081526007602052604090205460ff1615610bea5760405162461bcd60e51b815260206004820152601a60248201527f4356543a2053656e64657220697320626c61636b6c6973746564000000000000604482015260640161051f565b6001600160a01b03821660009081526007602052604090205460ff1615610c535760405162461bcd60e51b815260206004820152601d60248201527f4356543a20526563697069656e7420697320626c61636b6c6973746564000000604482015260640161051f565b610841838383610ca5565b60055460ff166104ce57604051638dfc202b60e01b815260040160405180910390fd5b60055460ff16156104ce5760405163d93c066560e01b815260040160405180910390fd5b610cad610c81565b6108418383836001600160a01b038316610cde578060026000828254610cd39190610f6b565b90915550610d509050565b6001600160a01b03831660009081526020819052604090205481811015610d315760405163391434e360e21b81526001600160a01b0385166004820152602481018290526044810183905260640161051f565b6001600160a01b03841660009081526020819052604090209082900390555b6001600160a01b038216610d6c57600280548290039055610d8b565b6001600160a01b03821660009081526020819052604090208054820190555b816001600160a01b0316836001600160a01b03167fddf252ad1be2c89b69c2b068fc378daa952ba7f163c4a11628f55a4df523b3ef83604051610dd091815260200190565b60405180910390a3505050565b600060208083528351808285015260005b81811015610e0a57858101830151858201604001528201610dee565b506000604082860101526040601f19601f8301168501019250505092915050565b80356001600160a01b0381168114610e4257600080fd5b919050565b60008060408385031215610e5a57600080fd5b610e6383610e2b565b946020939093013593505050565b600080600060608486031215610e8657600080fd5b610e8f84610e2b565b9250610e9d60208501610e2b565b9150604084013590509250925092565b600060208284031215610ebf57600080fd5b610ec882610e2b565b9392505050565b600060208284031215610ee157600080fd5b5035919050565b60008060408385031215610efb57600080fd5b610f0483610e2b565b9150610f1260208401610e2b565b90509250929050565b600181811c90821680610f2f57607f821691505b602082108103610f4f57634e487b7160e01b600052602260045260246000fd5b50919050565b634e487b7160e01b600052601160045260246000fd5b8082018082111561044357610443610f55565b8181038181111561044357610443610f5556fea26469706673582212203f3f09a2c6955e2b4e3927bcd16666f1fe2cba153ced633832ee6c50a278403864736f6c63430008140033",
  "linkReferences": {},
  "deployedLinkReferences": {}
}