{
  "_format": "hh-sol-artifact-1",
  "contractName": "CVTStaking",
  "sourceName": "contracts/CVTStaking.sol",
  "abi": [
    {
      "inputs": [
        {
          "internalType": "address",
          "name": "_cvtToken",
          "type": "address"
        }
      ],
      "stateMutability": "nonpayable",
      "type": "constructor"
    },
    {
      "inputs": [
        {
          "internalType": "address",
          "name": "owner",
          "type": "address"
        }
      ],
      "name": "OwnableInvalidOwner",
      "type": "error"
    },
    {
      "inputs": [
        {
          "internalType": "address",
          "name": "account",
          "type": "address"
        }
      ],
      "name": "OwnableUnauthorizedAccount",
      "type": "error"
    },
    {
      "inputs": [],
      "name": "ReentrancyGuardReentrantCall",
      "type": "error"
    },
    {
      "anonymous": false,
      "inputs": [
        {
          "indexed": true,
          "internalType": "address",
          "name": "user",
          "type": "address"
        },
        {
          "indexed": false,
          "internalType": "uint256",
          "name": "amount",
          "type": "uint256"
        }
      ],
      "name": "EmergencyWithdraw",
      "type": "event"
    },
    {
      "anonymous": false,
      "inputs": [
        {
          "indexed": true,
          "internalType": "address",
          "name": "previousOwner",
          "type": "address"
        },
        {
          "indexed": true,
          "internalType": "address",
          "name": "newOwner",
          "type": "address"
        }
      ],
      "name": "OwnershipTransferred",
      "type": "event"
    },
    {
      "anonymous": false,
      "inputs": [
        {
          "indexed": true,
          "internalType": "address",
          "name": "user",
          "type": "address"
        },
        {
          "indexed": false,
          "internalType": "uint256",
          "name": "reward",
          "type": "uint256"
        }
      ],
      "name": "RewardsClaimed",
      "type": "event"
    },
    {
      "anonymous": false,
      "inputs": [
        {
          "indexed": true,
          "internalType": "address",
          "name": "user",
          "type": "address"
        },
        {
          "indexed": false,
          "internalType": "uint256",
          "name": "amount",
          "type": "uint256"
        },
        {
          "indexed": false,
          "internalType": "uint256",
          "name": "totalStaked",
          "type": "uint256"
        }
      ],
      "name": "Staked",
      "type": "event"
    },
    {
      "anonymous": false,
      "inputs": [
        {
          "indexed": true,
          "internalType": "address",
          "name": "user",
          "type": "address"
        },
        {
          "indexed": false,
          "internalType": "uint256",
          "name": "amount",
          "type": "uint256"
        },
        {
          "indexed": false,
          "internalType": "uint256",
          "name": "reward",
          "type": "uint256"
        }
      ],
      "name": "Unstaked",
      "type": "event"
    },
    {
      "inputs": [],
      "name": "EARLY_STAKER_BONUS",
      "outputs": [
        {
          "internalType": "uint256",
          "name": "",
          "type": "uint256"
        }
      ],
      "stateMutability": "view",
      "type": "function"
    },
    {
      "inputs": [],
      "name": "EARLY_STAKER_CUTOFF",
      "outputs": [
        {
          "internalType": "uint256",
          "name": "",
          "type": "uint256"
        }
      ],
      "stateMutability": "view",
      "type": "function"
    },
    {
      "inputs": [],
      "name": "MIN_STAKE",
      "outputs": [
        {
          "internalType": "uint256",
          "name": "",
          "type": "uint256"
        }
      ],
      "stateMutability": "view",
      "type": "function"
    },
    {
      "inputs": [],
      "name": "REWARD_RATE",
      "outputs": [
        {
          "internalType": "uint256",
          "name": "",
          "type": "uint256"
        }
      ],
      "stateMutability": "view",
      "type": "function"
    },
    {
      "inputs": [],
      "name": "YEAR",
      "outputs": [
        {
          "internalType": "uint256",
          "name": "",
          "type": "uint256"
        }
      ],
      "stateMutability": "view",
      "type": "function"
    },
    {
      "inputs": [
        {
          "internalType": "address",
          "name": "user",
          "type": "address"
        }
      ],
      "name": "calculateReward",
      "outputs": [
        {
          "internalType": "uint256",
          "name": "",
          "type": "uint256"
        }
      ],
      "stateMutability": "view",
      "type": "function"
    },
    {
      "inputs": [],
      "name": "claimRewards",
      "outputs": [],
      "stateMutability": "nonpayable",
      "type": "function"
    },
    {
      "inputs": [],
      "name": "cvtToken",
      "outputs": [
        {
          "internalType": "contract IERC20",
          "name": "",
          "type": "address"
        }
      ],
      "stateMutability": "view",
      "type": "function"
    },
    {
      "inputs": [],
      "name": "deploymentTimestamp",
      "outputs": [
        {
          "internalType": "uint256",
          "name": "",
          "type": "uint256"
        }
      ],
      "stateMutability": "view",
      "type": "function"
    },
    {
      "inputs": [],
      "name": "emergencyWithdraw",
      "outputs": [],
      "stateMutability": "nonpayable",
      "type": "function"
    },
    {
      "inputs": [],
      "name": "getCurrentAPY",
      "outputs": [
        {
          "internalType": "uint256",
          "name": "",
          "type": "uint256"
        }
      ],
      "stateMutability": "view",
      "type": "function"
    },
    {
      "inputs": [
        {
          "internalType": "address",
          "name": "user",
          "type": "address"
        }
      ],
      "name": "getStakeInfo",
      "outputs": [
        {
          "internalType": "uint256",
          "name": "amount",
          "type": "uint256"
        },
        {
          "internalType": "uint256",
          "name": "pendingReward",
          "type": "uint256"
        },
        {
          "internalType": "uint256",
          "name": "stakingDuration",
          "type": "uint256"
        }
      ],
      "stateMutability": "view",
      "type": "function"
    },
    {
      "inputs": [],
      "name": "getTotalStakers",
      "outputs": [
        {
          "internalType": "uint256",
          "name": "",
          "type": "uint256"
        }
      ],
      "stateMutability": "view",
      "type": "function"
    },
    {
      "inputs": [],
      "name": "isEarlyStakerPeriod",
      "outputs": [
        {
          "internalType": "bool",
          "name": "",
          "type": "bool"
        }
      ],
      "stateMutability": "view",
      "type": "function"
    },
    {
      "inputs": [],
      "name": "owner",
      "outputs": [
        {
          "internalType": "address",
          "name": "",
          "type": "address"
        }
      ],
      "stateMutability": "view",
      "type": "function"
    },
    {
      "inputs": [],
      "name": "renounceOwnership",
      "outputs": [],
      "stateMutability": "nonpayable",
      "type": "function"
    },
    {
      "inputs": [
        {
          "internalType": "uint256",
          "name": "amount",
          "type": "uint256"
        }
      ],
      "name": "stake",
      "outputs": [],
      "stateMutability": "nonpayable",
      "type": "function"
    },
    {
      "inputs": [
        {
          "internalType": "uint256",
          "name": "",
          "type": "uint256"
        }
      ],
      "name": "stakers",
      "outputs": [
        {
          "internalType": "address",
          "name": "",
          "type": "address"
        }
      ],
      "stateMutability": "view",
      "type": "function"
    },
    {
      "inputs": [
        {
          "internalType": "address",
          "name": "",
          "type": "address"
        }
      ],
      "name": "stakes",
      "outputs": [
        {
          "internalType": "uint256",
          "name": "amount",
          "type": "uint256"
        },
        {
          "internalType": "uint256",
          "name": "timestamp",
          "type": "uint256"
        },
        {
          "internalType": "uint256",
          "name": "rewardDebt",
          "type": "uint256"
        },
        {
          "internalType": "uint256",
          "name": "lastClaimTime",
          "type": "uint256"
        }
      ],
      "stateMutability": "view",
      "type": "function"
    },
    {
      "inputs": [],
      "name": "totalRewardsPaid",
      "outputs": [
        {
          "internalType": "uint256",
          "name": "",
          "type": "uint256"
        }
      ],
      "stateMutability": "view",
      "type": "function"
    },
    {
      "inputs": [],
      "name": "totalStaked",
      "outputs": [
        {
          "internalType": "uint256",
          "name": "",
          "type": "uint256"
        }
      ],
      "stateMutability": "view",
      "type": "function"
    },
    {
      "inputs": [
        {
          "internalType": "address",
          "name": "newOwner",
          "type": "address"
        }
      ],
      "name": "transferOwnership",
      "outputs": [],
      "stateMutability": "nonpayable",
      "type": "function"
    },
    {
      "inputs": [
        {
          "internalType": "uint256",
          "name": "amount",
          "type": "uint256"
        }
      ],
      "name": "unstake",
      "outputs": [],
      "stateMutability": "nonpayable",
      "type": "function"
    }
  ],
  "bytecode": "0x608060405234801561001057600080fd5b50604051610ffd380380610ffd83398101604081905261002f91610153565b60017f9b779b17422d0df92223018b32b4d1fa46e071723d6817e2486d003becc55f0055338061007a57604051631e4fbdf760e01b8152600060048201526024015b60405180910390fd5b61008381610103565b506001600160a01b0381166100da5760405162461bcd60e51b815260206004820152601860248201527f4356545374616b696e673a205a65726f206164647265737300000000000000006044820152606401610071565b600180546001600160a01b0319166001600160a01b039290921691909117905542600255610183565b600080546001600160a01b038381166001600160a01b0319831681178455604051919092169283917f8be0079c531659141344cd1fd0a4f28419497f9722a3daafe3b4186f6b6457e09190a35050565b60006020828403121561016557600080fd5b81516001600160a01b038116811461017c57600080fd5b9392505050565b610e6b806101926000396000f3fe608060405234801561001057600080fd5b506004361061014d5760003560e01c8063962ca496116100c3578063caa461561161007c578063caa46156146102a4578063cb1c2b5c146102bc578063d82e3962146102cc578063db2e21bc146102df578063f2fde38b146102e7578063fd5e6dd1146102fa57600080fd5b8063962ca49614610235578063a08564661461023d578063a694fc3a14610250578063bfc12c0514610263578063c0d0f6fa1461026c578063c34531531461027657600080fd5b80635997bb37116101155780635997bb37146101e3578063715018a6146101eb57806374958e35146101f3578063817b1cd2146101fc57806383914540146102055780638da5cb5b1461021057600080fd5b806316934fc4146101525780632e17de78146101ac57806331ed0db4146101c1578063372500ab146101d357806344c7a169146101db575b600080fd5b610187610160366004610cfe565b60056020526000908152604090208054600182015460028301546003909301549192909184565b6040805194855260208501939093529183015260608201526080015b60405180910390f35b6101bf6101ba366004610d2e565b61030d565b005b6006545b6040519081526020016101a3565b6101bf6104ad565b6101c5601981565b6101c5600a81565b6101bf6104d8565b6101c560045481565b6101c560035481565b6101c56301e1338081565b6000546001600160a01b03165b6040516001600160a01b0390911681526020016101a3565b6101c56104ea565b60015461021d906001600160a01b031681565b6101bf61025e366004610d2e565b610532565b6101c560025481565b6101c562278d0081565b610289610284366004610cfe565b610746565b604080519384526020840192909252908201526060016101a3565b6102ac6107c5565b60405190151581526020016101a3565b6101c568056bc75e2d6310000081565b6101c56102da366004610cfe565b6107df565b6101bf6108cc565b6101bf6102f5366004610cfe565b610a3e565b61021d610308366004610d2e565b610a79565b610315610aa3565b336000908152600560205260409020548111156103795760405162461bcd60e51b815260206004820152601e60248201527f4356545374616b696e673a20496e73756666696369656e74207374616b65000060448201526064015b60405180910390fd5b600061038433610abf565b336000908152600560205260408120805492935084929091906103a8908490610d5d565b9250508190555081600360008282546103c19190610d5d565b909155505060015460405163a9059cbb60e01b8152336004820152602481018490526001600160a01b039091169063a9059cbb906044016020604051808303816000875af1158015610417573d6000803e3d6000fd5b505050506040513d601f19601f8201168201806040525081019061043b9190610d70565b6104575760405162461bcd60e51b815260040161037090610d92565b604080518381526020810183905233917f7fc4727e062e336010f2c282598ef5f14facb3de68cf8195c2f23e1454b2b74e910160405180910390a2506104aa6001600080516020610e1683398151915255565b50565b6104b5610aa3565b6104be33610abf565b506104d66001600080516020610e1683398151915255565b565b6104e0610c51565b6104d66000610c7e565b600062278d006002546104fd9190610dc9565b42101561052c5760646105126019600a610ddc565b61051c9190610df3565b61052790600a610dc9565b905090565b50600a90565b61053a610aa3565b68056bc75e2d631000008110156105935760405162461bcd60e51b815260206004820152601f60248201527f4356545374616b696e673a2042656c6f77206d696e696d756d207374616b65006044820152606401610370565b33600090815260056020526040902054156105b7576105b133610abf565b506105fa565b600680546001810182556000919091527ff652222313e28459528d920b65115c16c04f3efc82aaedc97be59f3f377c0d3f0180546001600160a01b031916331790555b6001546040516323b872dd60e01b8152336004820152306024820152604481018390526001600160a01b03909116906323b872dd906064016020604051808303816000875af1158015610651573d6000803e3d6000fd5b505050506040513d601f19601f820116820180604052508101906106759190610d70565b6106915760405162461bcd60e51b815260040161037090610d92565b33600090815260056020526040812080548392906106b0908490610dc9565b9091555050336000908152600560205260408120426001820181905560039182015580548392906106e2908490610dc9565b909155505033600081815260056020908152604091829020548251858152918201527f1449c6dd7851abc30abf37f57715f492010519147cc2652fbc38202c18a6ee90910160405180910390a26104aa6001600080516020610e1683398151915255565b6001600160a01b038116600090815260056020908152604080832081516080810183528154808252600183015494820194909452600282015492810192909252600301546060820152909190819061079d856107df565b81519093506107ad5760006107bc565b60208101516107bc9042610d5d565b93959294505050565b600062278d006002546107d89190610dc9565b4210905090565b6001600160a01b0381166000908152600560209081526040808320815160808101835281548082526001830154948201949094526002820154928101929092526003015460608201529082036108385750600092915050565b600081606001514261084a9190610d5d565b600254909150600a906108619062278d0090610dc9565b42101561088e5760646108766019600a610ddc565b6108809190610df3565b61088b90600a610dc9565b90505b600061089f6301e133806064610ddc565b845184906108ae908590610ddc565b6108b89190610ddc565b6108c29190610df3565b9695505050505050565b6108d4610aa3565b33600090815260056020526040902054806109315760405162461bcd60e51b815260206004820181905260248201527f4356545374616b696e673a204e6f207374616b6520746f2077697468647261776044820152606401610370565b3360009081526005602052604081208181556002018190556003805483929061095b908490610d5d565b909155505060015460405163a9059cbb60e01b8152336004820152602481018390526001600160a01b039091169063a9059cbb906044016020604051808303816000875af11580156109b1573d6000803e3d6000fd5b505050506040513d601f19601f820116820180604052508101906109d59190610d70565b6109f15760405162461bcd60e51b815260040161037090610d92565b60405181815233907f5fafa99d0643513820be26656b45130b01e1c03062e1266bf36f88cbd3bd96959060200160405180910390a2506104d66001600080516020610e1683398151915255565b610a46610c51565b6001600160a01b038116610a7057604051631e4fbdf760e01b815260006004820152602401610370565b6104aa81610c7e565b60068181548110610a8957600080fd5b6000918252602090912001546001600160a01b0316905081565b610aab610cce565b6002600080516020610e1683398151915255565b600080610acb836107df565b90508015610c4b576001600160a01b03831660009081526005602052604081206002018054839290610afe908490610dc9565b90915550506001600160a01b03831660009081526005602052604081204260039091015560048054839290610b34908490610dc9565b909155505060015460405163a9059cbb60e01b81526001600160a01b038581166004830152602482018490529091169063a9059cbb906044016020604051808303816000875af1158015610b8c573d6000803e3d6000fd5b505050506040513d601f19601f82011682018060405250810190610bb09190610d70565b610c075760405162461bcd60e51b815260206004820152602260248201527f4356545374616b696e673a20526577617264207472616e73666572206661696c604482015261195960f21b6064820152608401610370565b826001600160a01b03167ffc30cddea38e2bf4d6ea7d3f9ed3b6ad7f176419f4963bd81318067a4aee73fe82604051610c4291815260200190565b60405180910390a25b92915050565b6000546001600160a01b031633146104d65760405163118cdaa760e01b8152336004820152602401610370565b600080546001600160a01b038381166001600160a01b0319831681178455604051919092169283917f8be0079c531659141344cd1fd0a4f28419497f9722a3daafe3b4186f6b6457e09190a35050565b600080516020610e16833981519152546002036104d657604051633ee5aeb560e01b815260040160405180910390fd5b600060208284031215610d1057600080fd5b81356001600160a01b0381168114610d2757600080fd5b9392505050565b600060208284031215610d4057600080fd5b5035919050565b634e487b7160e01b600052601160045260246000fd5b81810381811115610c4b57610c4b610d47565b600060208284031215610d8257600080fd5b81518015158114610d2757600080fd5b6020808252601b908201527f4356545374616b696e673a205472616e73666572206661696c65640000000000604082015260600190565b80820180821115610c4b57610c4b610d47565b8082028115828204841417610c4b57610c4b610d47565b600082610e1057634e487b7160e01b600052601260045260246000fd5b50049056fe9b779b17422d0df92223018b32b4d1fa46e071723d6817e2486d003becc55f00a264697066735822122054f61928f0d8bb590498bb320bfd38052d8be89377c128ca8bf40368163c27dd64736f6c63430008140033",
  "linkReferences": {},
  "deployedLinkReferences": {}
}