{
  "_format": "hh-sol-artifact-1",
  "contractName": "CVTGovernance",
  "sourceName": "contracts/CVTGovernance.sol",
  "abi": [
    {
      "inputs": [
        {
          "internalType": "address",
          "name": "_cvtToken",
          "type": "address"
        }
      ],
      "stateMutability": "nonpayable",
      "type": "constructor"
    },
    {
      "inputs": [
        {
          "internalType": "address",
          "name": "owner",
          "type": "address"
        }
      ],
      "name": "OwnableInvalidOwner",
      "type": "error"
    },
    {
      "inputs": [
        {
          "internalType": "address",
          "name": "account",
          "type": "address"
        }
      ],
      "name": "OwnableUnauthorizedAccount",
      "type": "error"
    },
    {
      "inputs": [],
      "name": "ReentrancyGuardReentrantCall",
      "type": "error"
    },
    {
      "anonymous": false,
      "inputs": [
        {
          "indexed": true,
          "internalType": "address",
          "name": "previousOwner",
          "type": "address"
        },
        {
          "indexed": true,
          "internalType": "address",
          "name": "newOwner",
          "type": "address"
        }
      ],
      "name": "OwnershipTransferred",
      "type": "event"
    },
    {
      "anonymous": false,
      "inputs": [
        {
          "indexed": true,
          "internalType": "uint256",
          "name": "proposalId",
          "type": "uint256"
        }
      ],
      "name": "ProposalCancelled",
      "type": "event"
    },
    {
      "anonymous": false,
      "inputs": [
        {
          "indexed": true,
          "internalType": "uint256",
          "name": "proposalId",
          "type": "uint256"
        },
        {
          "indexed": true,
          "internalType": "address",
          "name": "proposer",
          "type": "address"
        },
        {
          "indexed": false,
          "internalType": "string",
          "name": "title",
          "type": "string"
        },
        {
          "indexed": false,
          "internalType": "enum CVTGovernance.ProposalType",
          "name": "proposalType",
          "type": "uint8"
        },
        {
          "indexed": false,
          "internalType": "uint256",
          "name": "startTime",
          "type": "uint256"
        },
        {
          "indexed": false,
          "internalType": "uint256",
          "name": "endTime",
          "type": "uint256"
        }
      ],
      "name": "ProposalCreated",
      "type": "event"
    },
    {
      "anonymous": false,
      "inputs": [
        {
          "indexed": true,
          "internalType": "uint256",
          "name": "proposalId",
          "type": "uint256"
        }
      ],
      "name": "ProposalExecuted",
      "type": "event"
    },
    {
      "anonymous": false,
      "inputs": [
        {
          "indexed": true,
          "internalType": "uint256",
          "name": "proposalId",
          "type": "uint256"
        },
        {
          "indexed": false,
          "internalType": "uint256",
          "name": "executionTime",
          "type": "uint256"
        }
      ],
      "name": "ProposalQueued",
      "type": "event"
    },
    {
      "anonymous": false,
      "inputs": [
        {
          "indexed": true,
          "internalType": "uint256",
          "name": "proposalId",
          "type": "uint256"
        },
        {
          "indexed": true,
          "internalType": "address",
          "name": "voter",
          "type": "address"
        },
        {
          "indexed": false,
          "internalType": "bool",
          "name": "support",
          "type": "bool"
        },
        {
          "indexed": false,
          "internalType": "uint256",
          "name": "weight",
          "type": "uint256"
        }
      ],
      "name": "Voted",
      "type": "event"
    },
    {
      "inputs": [],
      "name": "EXECUTION_DELAY",
      "outputs": [
        {
          "internalType": "uint256",
          "name": "",
          "type": "uint256"
        }
      ],
      "stateMutability": "view",
      "type": "function"
    },
    {
      "inputs": [],
      "name": "PROPOSAL_THRESHOLD",
      "outputs": [
        {
          "internalType": "uint256",
          "name": "",
          "type": "uint256"
        }
      ],
      "stateMutability": "view",
      "type": "function"
    },
    {
      "inputs": [],
      "name": "QUORUM_PERCENTAGE",
      "outputs": [
        {
          "internalType": "uint256",
          "name": "",
          "type": "uint256"
        }
      ],
      "stateMutability": "view",
      "type": "function"
    },
    {
      "inputs": [],
      "name": "VOTING_PERIOD",
      "outputs": [
        {
          "internalType": "uint256",
          "name": "",
          "type": "uint256"
        }
      ],
      "stateMutability": "view",
      "type": "function"
    },
    {
      "inputs": [
        {
          "internalType": "uint256",
          "name": "proposalId",
          "type": "uint256"
        }
      ],
      "name": "cancelProposal",
      "outputs": [],
      "stateMutability": "nonpayable",
      "type": "function"
    },
    {
      "inputs": [
        {
          "internalType": "string",
          "name": "title",
          "type": "string"
        },
        {
          "internalType": "string",
          "name": "description",
          "type": "string"
        },
        {
          "internalType": "enum CVTGovernance.ProposalType",
          "name": "proposalType",
          "type": "uint8"
        }
      ],
      "name": "createProposal",
      "outputs": [
        {
          "internalType": "uint256",
          "name": "",
          "type": "uint256"
        }
      ],
      "stateMutability": "nonpayable",
      "type": "function"
    },
    {
      "inputs": [],
      "name": "cvtToken",
      "outputs": [
        {
          "internalType": "contract IERC20",
          "name": "",
          "type": "address"
        }
      ],
      "stateMutability": "view",
      "type": "function"
    },
    {
      "inputs": [
        {
          "internalType": "uint256",
          "name": "proposalId",
          "type": "uint256"
        }
      ],
      "name": "executeProposal",
      "outputs": [],
      "stateMutability": "nonpayable",
      "type": "function"
    },
    {
      "inputs": [
        {
          "internalType": "uint256",
          "name": "proposalId",
          "type": "uint256"
        }
      ],
      "name": "finalizeProposal",
      "outputs": [],
      "stateMutability": "nonpayable",
      "type": "function"
    },
    {
      "inputs": [
        {
          "internalType": "uint256",
          "name": "proposalId",
          "type": "uint256"
        }
      ],
      "name": "getProposal",
      "outputs": [
        {
          "internalType": "address",
          "name": "proposer",
          "type": "address"
        },
        {
          "internalType": "string",
          "name": "title",
          "type": "string"
        },
        {
          "internalType": "string",
          "name": "description",
          "type": "string"
        },
        {
          "internalType": "enum CVTGovernance.ProposalType",
          "name": "proposalType",
          "type": "uint8"
        },
        {
          "internalType": "uint256",
          "name": "votesFor",
          "type": "uint256"
        },
        {
          "internalType": "uint256",
          "name": "votesAgainst",
          "type": "uint256"
        },
        {
          "internalType": "uint256",
          "name": "startTime",
          "type": "uint256"
        },
        {
          "internalType": "uint256",
          "name": "endTime",
          "type": "uint256"
        },
        {
          "internalType": "enum CVTGovernance.ProposalState",
          "name": "state",
          "type": "uint8"
        }
      ],
      "stateMutability": "view",
      "type": "function"
    },
    {
      "inputs": [
        {
          "internalType": "uint256",
          "name": "proposalId",
          "type": "uint256"
        }
      ],
      "name": "getProposalState",
      "outputs": [
        {
          "internalType": "enum CVTGovernance.ProposalState",
          "name": "",
          "type": "uint8"
        }
      ],
      "stateMutability": "view",
      "type": "function"
    },
    {
      "inputs": [],
      "name": "getQuorumVotes",
      "outputs": [
        {
          "internalType": "uint256",
          "name": "",
          "type": "uint256"
        }
      ],
      "stateMutability": "view",
      "type": "function"
    },
    {
      "inputs": [
        {
          "internalType": "address",
          "name": "user",
          "type": "address"
        }
      ],
      "name": "getVotingPower",
      "outputs": [
        {
          "internalType": "uint256",
          "name": "",
          "type": "uint256"
        }
      ],
      "stateMutability": "view",
      "type": "function"
    },
    {
      "inputs": [
        {
          "internalType": "uint256",
          "name": "proposalId",
          "type": "uint256"
        },
        {
          "internalType": "address",
          "name": "user",
          "type": "address"
        }
      ],
      "name": "hasVoted",
      "outputs": [
        {
          "internalType": "bool",
          "name": "",
          "type": "bool"
        }
      ],
      "stateMutability": "view",
      "type": "function"
    },
    {
      "inputs": [],
      "name": "owner",
      "outputs": [
        {
          "internalType": "address",
          "name": "",
          "type": "address"
        }
      ],
      "stateMutability": "view",
      "type": "function"
    },
    {
      "inputs": [],
      "name": "proposalCount",
      "outputs": [
        {
          "internalType": "uint256",
          "name": "",
          "type": "uint256"
        }
      ],
      "stateMutability": "view",
      "type": "function"
    },
    {
      "inputs": [
        {
          "internalType": "uint256",
          "name": "",
          "type": "uint256"
        }
      ],
      "name": "proposals",
      "outputs": [
        {
          "internalType": "uint256",
          "name": "id",
          "type": "uint256"
        },
        {
          "internalType": "address",
          "name": "proposer",
          "type": "address"
        },
        {
          "internalType": "string",
          "name": "title",
          "type": "string"
        },
        {
          "internalType": "string",
          "name": "description",
          "type": "string"
        },
        {
          "internalType": "enum CVTGovernance.ProposalType",
          "name": "proposalType",
          "type": "uint8"
        },
        {
          "internalType": "uint256",
          "name": "votesFor",
          "type": "uint256"
        },
        {
          "internalType": "uint256",
          "name": "votesAgainst",
          "type": "uint256"
        },
        {
          "internalType": "uint256",
          "name": "startTime",
          "type": "uint256"
        },
        {
          "internalType": "uint256",
          "name": "endTime",
          "type": "uint256"
        },
        {
          "internalType": "uint256",
          "name": "executionTime",
          "type": "uint256"
        },
        {
          "internalType": "enum CVTGovernance.ProposalState",
          "name": "state",
          "type": "uint8"
        }
      ],
      "stateMutability": "view",
      "type": "function"
    },
    {
      "inputs": [],
      "name": "renounceOwnership",
      "outputs": [],
      "stateMutability": "nonpayable",
      "type": "function"
    },
    {
      "inputs": [
        {
          "internalType": "address",
          "name": "newOwner",
          "type": "address"
        }
      ],
      "name": "transferOwnership",
      "outputs": [],
      "stateMutability": "nonpayable",
      "type": "function"
    },
    {
      "inputs": [
        {
          "internalType": "uint256",
          "name": "proposalId",
          "type": "uint256"
        },
        {
          "internalType": "bool",
          "name": "support",
          "type": "bool"
        }
      ],
      "name": "vote",
      "outputs": [],
      "stateMutability": "nonpayable",
      "type": "function"
    }
  ],
  "bytecode": "0x60806040523480156200001157600080fd5b50604051620019273803806200192783398101604081905262000034916200015a565b33806200005c57604051631e4fbdf760e01b8152600060048201526024015b60405180910390fd5b62000067816200010a565b5060017f9b779b17422d0df92223018b32b4d1fa46e071723d6817e2486d003becc55f00556001600160a01b038116620000e45760405162461bcd60e51b815260206004820152601b60248201527f435654476f7665726e616e63653a205a65726f20616464726573730000000000604482015260640162000053565b600180546001600160a01b0319166001600160a01b03929092169190911790556200018c565b600080546001600160a01b038381166001600160a01b0319831681178455604051919092169283917f8be0079c531659141344cd1fd0a4f28419497f9722a3daafe3b4186f6b6457e09190a35050565b6000602082840312156200016d57600080fd5b81516001600160a01b03811681146200018557600080fd5b9392505050565b61178b806200019c6000396000f3fe608060405234801561001057600080fd5b506004361061012c5760003560e01c8063a6c26603116100ad578063da35c66411610071578063da35c664146102ab578063e0a8f6f5146102b4578063eccc51fd146102c7578063ee8a7c15146102da578063f2fde38b146102e257600080fd5b8063a6c2660314610242578063b1610d7e14610253578063bb4d44361461025d578063c7f758a814610270578063c9d27afe1461029857600080fd5b8063715018a6116100f4578063715018a6146101c75780638da5cb5b146101cf5780639080936f146101f45780639b77425214610227578063a08564661461022f57600080fd5b8063013cf08b146101315780630d61b5191461016457806337f135d71461017957806343859632146101915780635652077c146101b4575b600080fd5b61014461013f3660046111d5565b6102f5565b60405161015b9b9a9998979695949392919061126e565b60405180910390f35b6101776101723660046111d5565b61046b565b005b6101836202a30081565b60405190815260200161015b565b6101a461019f366004611317565b61058e565b604051901515815260200161015b565b6101776101c23660046111d5565b6105be565b6101776107e6565b6000546001600160a01b03165b6040516001600160a01b03909116815260200161015b565b61021a6102023660046111d5565b6000908152600360205260409020600a015460ff1690565b60405161015b9190611343565b6101836107fa565b6001546101dc906001600160a01b031681565b61018369021e19e0c9bab240000081565b61018362093a8081565b61018361026b366004611351565b610890565b61028361027e3660046111d5565b6108ff565b60405161015b99989796959493929190611373565b6101776102a63660046113f0565b610ab4565b61018360025481565b6101776102c23660046111d5565b610d89565b6101836102d53660046114c8565b610ed1565b610183600a81565b6101776102f0366004611351565b6110aa565b60036020526000908152604090208054600182015460028301805492936001600160a01b039092169261032790611544565b80601f016020809104026020016040519081016040528092919081815260200182805461035390611544565b80156103a05780601f10610375576101008083540402835291602001916103a0565b820191906000526020600020905b81548152906001019060200180831161038357829003601f168201915b5050505050908060030180546103b590611544565b80601f01602080910402602001604051908101604052809291908181526020018280546103e190611544565b801561042e5780601f106104035761010080835404028352916020019161042e565b820191906000526020600020905b81548152906001019060200180831161041157829003601f168201915b505050600484015460058501546006860154600787015460088801546009890154600a90990154979860ff9586169894975092955090939092168b565b6104736110e8565b600081815260036020819052604090912090600a82015460ff16600681111561049e5761049e611234565b146104f05760405162461bcd60e51b815260206004820152601c60248201527f435654476f7665726e616e63653a204e6f74207375636365656465640000000060448201526064015b60405180910390fd5b80600901544210156105505760405162461bcd60e51b815260206004820152602360248201527f435654476f7665726e616e63653a2054696d656c6f636b206e6f7420657870696044820152621c995960ea1b60648201526084016104e7565b600a8101805460ff1916600517905560405182907f712ae1383f79ac853f8d882153778e0260ef8f03b504e2866e0593e04d2b291f90600090a25050565b60008281526003602090815260408083206001600160a01b0385168452600b0190915290205460ff165b92915050565b60008181526003602052604090206001600a82015460ff1660068111156105e7576105e7611234565b146106345760405162461bcd60e51b815260206004820152601960248201527f435654476f7665726e616e63653a204e6f74206163746976650000000000000060448201526064016104e7565b80600801544210156106885760405162461bcd60e51b815260206004820152601f60248201527f435654476f7665726e616e63653a20566f74696e67206e6f7420656e6465640060448201526064016104e7565b60008160060154826005015461069e9190611594565b90506000600160009054906101000a90046001600160a01b03166001600160a01b03166318160ddd6040518163ffffffff1660e01b8152600401602060405180830381865afa1580156106f5573d6000803e3d6000fd5b505050506040513d601f19601f8201168201806040525081019061071991906115a7565b90506000606461072a600a846115c0565b61073491906115d7565b90508083101561075c57600a840180546002919060ff19166001835b02179055505050505050565b8360060154846005015411156107c957600a8401805460ff191660031790556107886202a30042611594565b6009850181905560405190815285907f9a2e42fd6722813d69113e7d0079d3d940171428df7373df9c7f7617cfda28929060200160405180910390a26107df565b600a840180546002919060ff1916600183610750565b5050505050565b6107ee6110e8565b6107f86000611115565b565b60006064600a600160009054906101000a90046001600160a01b03166001600160a01b03166318160ddd6040518163ffffffff1660e01b8152600401602060405180830381865afa158015610853573d6000803e3d6000fd5b505050506040513d601f19601f8201168201806040525081019061087791906115a7565b61088191906115c0565b61088b91906115d7565b905090565b6001546040516370a0823160e01b81526001600160a01b03838116600483015260009216906370a0823190602401602060405180830381865afa1580156108db573d6000803e3d6000fd5b505050506040513d601f19601f820116820180604052508101906105b891906115a7565b60006060806000806000806000806000600360008c815260200190815260200160002090508060010160009054906101000a90046001600160a01b031681600201826003018360040160009054906101000a900460ff16846005015485600601548660070154876008015488600a0160009054906101000a900460ff1687805461098890611544565b80601f01602080910402602001604051908101604052809291908181526020018280546109b490611544565b8015610a015780601f106109d657610100808354040283529160200191610a01565b820191906000526020600020905b8154815290600101906020018083116109e457829003601f168201915b50505050509750868054610a1490611544565b80601f0160208091040260200160405190810160405280929190818152602001828054610a4090611544565b8015610a8d5780601f10610a6257610100808354040283529160200191610a8d565b820191906000526020600020905b815481529060010190602001808311610a7057829003601f168201915b50505050509650995099509950995099509950995099509950509193959799909294969850565b610abc611165565b60008281526003602052604090206001600a82015460ff166006811115610ae557610ae5611234565b14610b3d5760405162461bcd60e51b815260206004820152602260248201527f435654476f7665726e616e63653a2050726f706f73616c206e6f742061637469604482015261766560f01b60648201526084016104e7565b80600801544210610b905760405162461bcd60e51b815260206004820152601b60248201527f435654476f7665726e616e63653a20566f74696e6720656e646564000000000060448201526064016104e7565b336000908152600b8201602052604090205460ff1615610bf25760405162461bcd60e51b815260206004820152601c60248201527f435654476f7665726e616e63653a20416c726561647920766f7465640000000060448201526064016104e7565b6001546040516370a0823160e01b81523360048201526000916001600160a01b0316906370a0823190602401602060405180830381865afa158015610c3b573d6000803e3d6000fd5b505050506040513d601f19601f82011682018060405250810190610c5f91906115a7565b905060008111610cb15760405162461bcd60e51b815260206004820152601e60248201527f435654476f7665726e616e63653a204e6f20766f74696e6720706f776572000060448201526064016104e7565b336000908152600b830160209081526040808320805460ff19166001179055600c850190915290208190558215610d015780826005016000828254610cf69190611594565b90915550610d1b9050565b80826006016000828254610d159190611594565b90915550505b60408051841515815260208101839052339186917f7c2de587c00d75474a0c6c6fa96fd3b45dc974cd4e8a75f712bb84c950dce1b5910160405180910390a35050610d8560017f9b779b17422d0df92223018b32b4d1fa46e071723d6817e2486d003becc55f0055565b5050565b600081815260036020526040902060018101546001600160a01b0316331480610dbc57506000546001600160a01b031633145b610e085760405162461bcd60e51b815260206004820152601d60248201527f435654476f7665726e616e63653a204e6f7420617574686f72697a656400000060448201526064016104e7565b6001600a82015460ff166006811115610e2357610e23611234565b1480610e4757506003600a82015460ff166006811115610e4557610e45611234565b145b610e935760405162461bcd60e51b815260206004820152601c60248201527f435654476f7665726e616e63653a2043616e6e6f742063616e63656c0000000060448201526064016104e7565b600a8101805460ff1916600617905560405182907f416e669c63d9a3a5e36ee7cc7e2104b8db28ccd286aa18966e98fa230c73b08c90600090a25050565b6001546040516370a0823160e01b815233600482015260009169021e19e0c9bab2400000916001600160a01b03909116906370a0823190602401602060405180830381865afa158015610f28573d6000803e3d6000fd5b505050506040513d601f19601f82011682018060405250810190610f4c91906115a7565b1015610fad5760405162461bcd60e51b815260206004820152602a60248201527f435654476f7665726e616e63653a20496e73756666696369656e742043565420604482015269746f2070726f706f736560b01b60648201526084016104e7565b60028054906000610fbd836115f9565b90915550506002805460008181526003602052604090208181556001810180546001600160a01b0319163317905590918101610ff98782611661565b50600381016110088682611661565b5060048101805485919060ff1916600183600581111561102a5761102a611234565b021790555042600782018190556110459062093a8090611594565b60088201819055600a8201805460ff191660011790556007820154604051339285927ffd3a4372829eebfa1fcdd5a6e4bbbeb5b140261c36928520367a19665a17a99692611099928c928b92909190611721565b60405180910390a350949350505050565b6110b26110e8565b6001600160a01b0381166110dc57604051631e4fbdf760e01b8152600060048201526024016104e7565b6110e581611115565b50565b6000546001600160a01b031633146107f85760405163118cdaa760e01b81523360048201526024016104e7565b600080546001600160a01b038381166001600160a01b0319831681178455604051919092169283917f8be0079c531659141344cd1fd0a4f28419497f9722a3daafe3b4186f6b6457e09190a35050565b61116d611193565b60027f9b779b17422d0df92223018b32b4d1fa46e071723d6817e2486d003becc55f0055565b7f9b779b17422d0df92223018b32b4d1fa46e071723d6817e2486d003becc55f00546002036107f857604051633ee5aeb560e01b815260040160405180910390fd5b6000602082840312156111e757600080fd5b5035919050565b6000815180845260005b81811015611214576020818501810151868301820152016111f8565b506000602082860101526020601f19601f83011685010191505092915050565b634e487b7160e01b600052602160045260246000fd5b6006811061125a5761125a611234565b9052565b6007811061125a5761125a611234565b8b81526001600160a01b038b166020820152610160604082018190526000906112998382018d6111ee565b905082810360608401526112ad818c6111ee565b9150506112bd608083018a61124a565b8760a08301528660c08301528560e083015284610100830152836101208301526112eb61014083018461125e565b9c9b505050505050505050505050565b80356001600160a01b038116811461131257600080fd5b919050565b6000806040838503121561132a57600080fd5b8235915061133a602084016112fb565b90509250929050565b602081016105b8828461125e565b60006020828403121561136357600080fd5b61136c826112fb565b9392505050565b6001600160a01b038a168152610120602082018190526000906113988382018c6111ee565b905082810360408401526113ac818b6111ee565b9150506113bc606083018961124a565b8660808301528560a08301528460c08301528360e08301526113e261010083018461125e565b9a9950505050505050505050565b6000806040838503121561140357600080fd5b823591506020830135801515811461141a57600080fd5b809150509250929050565b634e487b7160e01b600052604160045260246000fd5b600082601f83011261144c57600080fd5b813567ffffffffffffffff8082111561146757611467611425565b604051601f8301601f19908116603f0116810190828211818310171561148f5761148f611425565b816040528381528660208588010111156114a857600080fd5b836020870160208301376000602085830101528094505050505092915050565b6000806000606084860312156114dd57600080fd5b833567ffffffffffffffff808211156114f557600080fd5b6115018783880161143b565b9450602086013591508082111561151757600080fd5b506115248682870161143b565b92505060408401356006811061153957600080fd5b809150509250925092565b600181811c9082168061155857607f821691505b60208210810361157857634e487b7160e01b600052602260045260246000fd5b50919050565b634e487b7160e01b600052601160045260246000fd5b808201808211156105b8576105b861157e565b6000602082840312156115b957600080fd5b5051919050565b80820281158282048414176105b8576105b861157e565b6000826115f457634e487b7160e01b600052601260045260246000fd5b500490565b60006001820161160b5761160b61157e565b5060010190565b601f82111561165c57600081815260208120601f850160051c810160208610156116395750805b601f850160051c820191505b8181101561165857828155600101611645565b5050505b505050565b815167ffffffffffffffff81111561167b5761167b611425565b61168f816116898454611544565b84611612565b602080601f8311600181146116c457600084156116ac5750858301515b600019600386901b1c1916600185901b178555611658565b600085815260208120601f198616915b828110156116f3578886015182559484019460019091019084016116d4565b50858210156117115787850151600019600388901b60f8161c191681555b5050505050600190811b01905550565b60808152600061173460808301876111ee565b9050611743602083018661124a565b6040820193909352606001529291505056fea264697066735822122035f12479cc60e069769d447652d51577ce7bc09cdbb80594b0455e1efad2abbe64736f6c63430008140033",
  "linkReferences": {},
  "deployedLinkReferences": {}
}