{"contracts/CVTToken.sol":{"CyberViserToken":{"abi":[{"inputs":[],"stateMutability":"nonpayable","type":"constructor"},{"inputs":[{"internalType":"address","name":"spender","type":"address"},{"internalType":"uint256","name":"allowance","type":"uint256"},{"internalType":"uint256","name":"needed","type":"uint256"}],"name":"ERC20InsufficientAllowance","type":"error"},{"inputs":[{"internalType":"address","name":"sender","type":"address"},{"internalType":"uint256","name":"balance","type":"uint256"},{"internalType":"uint256","name":"needed","type":"uint256"}],"name":"ERC20InsufficientBalance","type":"error"},{"inputs":[{"internalType":"address","name":"approver","type":"address"}],"name":"ERC20InvalidApprover","type":"error"},{"inputs":[{"internalType":"address","name":"receiver","type":"address"}],"name":"ERC20InvalidReceiver","type":"error"},{"inputs":[{"internalType":"address","name":"sender","type":"address"}],"name":"ERC20InvalidSender","type":"error"},{"inputs":[{"internalType":"address","name":"spender","type":"address"}],"name":"ERC20InvalidSpender","type":"error"},{"inputs":[],"name":"EnforcedPause","type":"error"},{"inputs":[],"name":"ExpectedPause","type":"error"},{"inputs":[{"internalType":"address","name":"owner","type":"address"}],"name":"OwnableInvalidOwner","type":"error"},{"inputs":[{"internalType":"address","name":"account","type":"address"}],"name":"OwnableUnauthorizedAccount","type":"error"},{"anonymous":false,"inputs":[{"indexed":true,"internalType":"address","name":"account","type":"address"}],"name":"AddressBlacklisted","type":"event"},{"anonymous":false,"inputs":[{"indexed":true,"internalType":"address","name":"account","type":"address"}],"name":"AddressWhitelisted","type":"event"},{"anonymous":false,"inputs":[{"indexed":true,"internalType":"address","name":"owner","type":"address"},{"indexed":true,"internalType":"address","name":"spender","type":"address"},{"indexed":false,"internalType":"uint256","name":"value","type":"uint256"}],"name":"Approval","type":"event"},{"anonymous":false,"inputs":[{"indexed":true,"internalType":"address","name":"minter","type":"address"}],"name":"MinterAdded","type":"event"},{"anonymous":false,"inputs":[{"indexed":true,"internalType":"address","name":"minter","type":"address"}],"name":"MinterRemoved","type":"event"},{"anonymous":false,"inputs":[{"indexed":true,"internalType":"address","name":"previousOwner","type":"address"},{"indexed":true,"internalType":"address","name":"newOwner","type":"address"}],"name":"OwnershipTransferred","type":"event"},{"anonymous":false,"inputs":[{"indexed":false,"internalType":"address","name":"account","type":"address"}],"name":"Paused","type":"event"},{"anonymous":false,"inputs":[{"indexed":true,"internalType":"address","name":"from","type":"address"},{"indexed":false,"internalType":"uint256","name":"amount","type":"uint256"}],"name":"TokensBurned","type":"event"},{"anonymous":false,"inputs":[{"indexed":true,"internalType":"address","name":"from","type":"address"},{"indexed":true,"internalType":"address","name":"to","type":"address"},{"indexed":false,"internalType":"uint256","name":"value","type":"uint256"}],"name":"Transfer","type":"event"},{"anonymous":false,"inputs":[{"indexed":false,"internalType":"address","name":"account","type":"address"}],"name":"Unpaused","type":"event"},{"inputs":[],"name":"MAX_SUPPLY","outputs":[{"internalType":"uint256","name":"","type":"uint256"}],"stateMutability":"view","type":"function"},{"inputs":[{"internalType":"address","name":"minter","type":"address"}],"name":"addMinter","outputs":[],"stateMutability":"nonpayable","type":"function"},{"inputs":[{"internalType":"address","name":"owner","type":"address"},{"internalType":"address","name":"spender","type":"address"}],"name":"allowance","outputs":[{"internalType":"uint256","name":"","type":"uint256"}],"stateMutability":"view","type":"function"},{"inputs":[{"internalType":"address","name":"spender","type":"address"},{"internalType":"uint256","name":"value","type":"uint256"}],"name":"approve","outputs":[{"internalType":"bool","name":"","type":"bool"}],"stateMutability":"nonpayable","type":"function"},{"inputs":[{"internalType":"address","name":"account","type":"address"}],"name":"balanceOf","outputs":[{"internalType":"uint256","name":"","type":"uint256"}],"stateMutability":"view","type":"function"},{"inputs":[{"internalType":"address","name":"account","type":"address"}],"name":"blacklist","outputs":[],"stateMutability":"nonpayable","type":"function"},{"inputs":[{"internalType":"address","name":"","type":"address"}],"name":"blacklisted","outputs":[{"internalType":"bool","name":"","type":"bool"}],"stateMutability":"view","type":"function"},{"inputs":[{"internalType":"uint256","name":"amount","type":"uint256"}],"name":"burn","outputs":[],"stateMutability":"nonpayable","type":"function"},{"inputs":[],"name":"decimals","outputs":[{"internalType":"uint8","name":"","type":"uint8"}],"stateMutability":"view","type":"function"},{"inputs":[{"internalType":"address","name":"to","type":"address"},{"internalType":"uint256","name":"amount","type":"uint256"}],"name":"mint","outputs":[],"stateMutability":"nonpayable","type":"function"},{"inputs":[{"internalType":"address","name":"","type":"address"}],"name":"minters","outputs":[{"internalType":"bool","name":"","type":"bool"}],"stateMutability":"view","type":"function"},{"inputs":[],"name":"name","outputs":[{"internalType":"string","name":"","type":"string"}],"stateMutability":"view","type":"function"},{"inputs":[],"name":"owner","outputs":[{"internalType":"address","name":"","type":"address"}],"stateMutability":"view","type":"function"},{"inputs":[],"name":"pause","outputs":[],"stateMutability":"nonpayable","type":"function"},{"inputs":[],"name":"paused","outputs":[{"internalType":"bool","name":"","type":"bool"}],"stateMutability":"view","type":"function"},{"inputs":[],"name":"remainingSupply","outputs":[{"internalType":"uint256","name":"","type":"uint256"}],"stateMutability":"view","type":"function"},{"inputs":[{"internalType":"address","name":"minter","type":"address"}],"name":"removeMinter","outputs":[],"stateMutability":"nonpayable","type":"function"},{"inputs":[],"name":"renounceOwnership","outputs":[],"stateMutability":"nonpayable","type":"function"},{"inputs":[],"name":"symbol","outputs":[{"internalType":"string","name":"","type":"string"}],"stateMutability":"view","type":"function"},{"inputs":[],"name":"totalSupply","outputs":[{"internalType":"uint256","name":"","type":"uint256"}],"stateMutability":"view","type":"function"},{"inputs":[{"internalType":"address","name":"to","type":"address"},{"internalType":"uint256","name":"value","type":"uint256"}],"name":"transfer","outputs":[{"internalType":"bool","name":"","type":"bool"}],"stateMutability":"nonpayable","type":"function"},{"inputs":[{"internalType":"address","name":"from","type":"address"},{"internalType":"address","name":"to","type":"address"},{"internalType":"uint256","name":"value","type":"uint256"}],"name":"transferFrom","outputs":[{"internalType":"bool","name":"","type":"bool"}],"stateMutability":"nonpayable","type":"function"},{"inputs":[{"internalType":"address","name":"newOwner","type":"address"}],"name":"transferOwnership","outputs":[],"stateMutability":"nonpayable","type":"function"},{"inputs":[],"name":"unpause","outputs":[],"stateMutability":"nonpayable","type":"function"},{"inputs":[{"internalType":"address","name":"account","type":"address"}],"name":"whitelist","outputs":[],"stateMutability":"nonpayable","type":"function"}],"evm":{"bytecode":{"linkReferences":{},"object":"60806040523480156200001157600080fd5b50336040518060400160405280601081526020016f21bcb132b92b34b9b2b9102a37b5b2b760811b8152506040518060400160405280600381526020016210d59560ea1b8152508160039081620000699190620004a9565b506004620000788282620004a9565b5050506001600160a01b038116620000ab57604051631e4fbdf760e01b8152600060048201526024015b60405180910390fd5b620000b68162000114565b50620000ce336a18d0bf423c03d8de0000006200016e565b33600081815260066020526040808220805460ff19166001179055517f6ae172837ea30b801fbfcdd4108aa1d5bf8ff775444fd70256b44e6bf3dfc3f69190a26200059d565b600580546001600160a01b03838116610100818102610100600160a81b031985161790945560405193909204169182907f8be0079c531659141344cd1fd0a4f28419497f9722a3daafe3b4186f6b6457e090600090a35050565b6001600160a01b0382166200019a5760405163ec442f0560e01b815260006004820152602401620000a2565b620001a860008383620001ac565b5050565b6001600160a01b03831660009081526007602052604090205460ff1615620002175760405162461bcd60e51b815260206004820152601a60248201527f4356543a2053656e64657220697320626c61636b6c69737465640000000000006044820152606401620000a2565b6001600160a01b03821660009081526007602052604090205460ff1615620002825760405162461bcd60e51b815260206004820152601d60248201527f4356543a20526563697069656e7420697320626c61636b6c69737465640000006044820152606401620000a2565b6200028f83838362000294565b505050565b6200029e620002ab565b6200028f838383620002d2565b60055460ff1615620002d05760405163d93c066560e01b815260040160405180910390fd5b565b6001600160a01b03831662000301578060026000828254620002f5919062000575565b90915550620003759050565b6001600160a01b03831660009081526020819052604090205481811015620003565760405163391434e360e21b81526001600160a01b03851660048201526024810182905260448101839052606401620000a2565b6001600160a01b03841660009081526020819052604090209082900390555b6001600160a01b0382166200039357600280548290039055620003b2565b6001600160a01b03821660009081526020819052604090208054820190555b816001600160a01b0316836001600160a01b03167fddf252ad1be2c89b69c2b068fc378daa952ba7f163c4a11628f55a4df523b3ef83604051620003f891815260200190565b60405180910390a3505050565b634e487b7160e01b600052604160045260246000fd5b600181811c908216806200043057607f821691505b6020821081036200045157634e487b7160e01b600052602260045260246000fd5b50919050565b601f8211156200028f57600081815260208120601f850160051c81016020861015620004805750805b601f850160051c820191505b81811015620004a1578281556001016200048c565b505050505050565b81516001600160401b03811115620004c557620004c562000405565b620004dd81620004d684546200041b565b8462000457565b602080601f831160018114620005155760008415620004fc5750858301515b600019600386901b1c1916600185901b178555620004a1565b600085815260208120601f198616915b82811015620005465788860151825594840194600190910190840162000525565b5085821015620005655787850151600019600388901b60f8161c191681555b5050505050600190811b01905550565b808201808211156200059757634e487b7160e01b600052601160045260246000fd5b92915050565b610fc780620005ad6000396000f3fe608060405234801561001057600080fd5b50600436106101735760003560e01c8063715018a6116100de578063a9059cbb11610097578063dd62ed3e11610071578063dd62ed3e1461031b578063f2fde38b14610354578063f46eccc414610367578063f9f92be41461038a57600080fd5b8063a9059cbb146102dd578063da0239a6146102f0578063dbac26e9146102f857600080fd5b8063715018a6146102765780638456cb591461027e5780638da5cb5b1461028657806395d89b41146102af578063983b2d56146102b75780639b19251a146102ca57600080fd5b806332cb6b0c1161013057806332cb6b0c146102025780633f4ba83a1461021457806340c10f191461021c57806342966c681461022f5780635c975abb1461024257806370a082311461024d57600080fd5b806306fdde0314610178578063095ea7b31461019657806318160ddd146101b957806323b872dd146101cb5780633092afd5146101de578063313ce567146101f3575b600080fd5b61018061039d565b60405161018d9190610ddd565b60405180910390f35b6101a96101a4366004610e47565b61042f565b604051901515815260200161018d565b6002545b60405190815260200161018d565b6101a96101d9366004610e71565b610449565b6101f16101ec366004610ead565b61046d565b005b6040516012815260200161018d565b6101bd6a52b7d2dcc80cd2e400000081565b6101f16104be565b6101f161022a366004610e47565b6104d0565b6101f161023d366004610ecf565b61060d565b60055460ff166101a9565b6101bd61025b366004610ead565b6001600160a01b031660009081526020819052604090205490565b6101f161064f565b6101f1610661565b60055461010090046001600160a01b03166040516001600160a01b03909116815260200161018d565b610180610671565b6101f16102c5366004610ead565b610680565b6101f16102d8366004610ead565b61071e565b6101a96102eb366004610e47565b61076f565b6101bd61077d565b6101a9610306366004610ead565b60076020526000908152604090205460ff1681565b6101bd610329366004610ee8565b6001600160a01b03918216600090815260016020908152604080832093909416825291909152205490565b6101f1610362366004610ead565b6107a2565b6101a9610375366004610ead565b60066020526000908152604090205460ff1681565b6101f1610398366004610ead565b6107e0565b6060600380546103ac90610f1b565b80601f01602080910402602001604051908101604052809291908181526020018280546103d890610f1b565b80156104255780601f106103fa57610100808354040283529160200191610425565b820191906000526020600020905b81548152906001019060200180831161040857829003601f168201915b5050505050905090565b60003361043d818585610834565b60019150505b92915050565b600033610457858285610846565b6104628585856108c5565b506001949350505050565b610475610924565b6001600160a01b038116600081815260066020526040808220805460ff19169055517fe94479a9f7e1952cc78f2d6baab678adc1b772d936c6583def489e524cb666929190a250565b6104c6610924565b6104ce610957565b565b3360009081526006602052604090205460ff166105285760405162461bcd60e51b815260206004820152601160248201527021ab2a1d102737ba10309036b4b73a32b960791b60448201526064015b60405180910390fd5b6a52b7d2dcc80cd2e40000008161053e60025490565b6105489190610f6b565b11156105965760405162461bcd60e51b815260206004820152601860248201527f4356543a204d617820737570706c792065786365656465640000000000000000604482015260640161051f565b6001600160a01b03821660009081526007602052604090205460ff16156105ff5760405162461bcd60e51b815260206004820152601d60248201527f4356543a20526563697069656e7420697320626c61636b6c6973746564000000604482015260640161051f565b61060982826109a9565b5050565b61061733826109df565b60405181815233907ffd38818f5291bf0bb3a2a48aadc06ba8757865d1dabd804585338aab3009dcb69060200160405180910390a250565b610657610924565b6104ce6000610a15565b610669610924565b6104ce610a6f565b6060600480546103ac90610f1b565b610688610924565b6001600160a01b0381166106d25760405162461bcd60e51b81526020600482015260116024820152704356543a205a65726f206164647265737360781b604482015260640161051f565b6001600160a01b038116600081815260066020526040808220805460ff19166001179055517f6ae172837ea30b801fbfcdd4108aa1d5bf8ff775444fd70256b44e6bf3dfc3f69190a250565b610726610924565b6001600160a01b038116600081815260076020526040808220805460ff19169055517f4f783c179409b4127238bc9c990bc99b9a651666a0d20b51d6c42849eb88466d9190a250565b60003361043d8185856108c5565b600061078860025490565b61079d906a52b7d2dcc80cd2e4000000610f7e565b905090565b6107aa610924565b6001600160a01b0381166107d457604051631e4fbdf760e01b81526000600482015260240161051f565b6107dd81610a15565b50565b6107e8610924565b6001600160a01b038116600081815260076020526040808220805460ff19166001179055517fdaf49ab9345b6cb75bcb5a7f726bff9183c34dcf5c098c385730f9fd893765f69190a250565b6108418383836001610aac565b505050565b6001600160a01b038381166000908152600160209081526040808320938616835292905220546000198110156108bf57818110156108b057604051637dc7a0d960e11b81526001600160a01b0384166004820152602481018290526044810183905260640161051f565b6108bf84848484036000610aac565b50505050565b6001600160a01b0383166108ef57604051634b637e8f60e11b81526000600482015260240161051f565b6001600160a01b0382166109195760405163ec442f0560e01b81526000600482015260240161051f565b610841838383610b81565b6005546001600160a01b036101009091041633146104ce5760405163118cdaa760e01b815233600482015260240161051f565b61095f610c5e565b6005805460ff191690557f5db9ee0a495bf2e6ff9c91a7834c1ba4fdd244a5e8aa4e537bd38aeae4b073aa335b6040516001600160a01b03909116815260200160405180910390a1565b6001600160a01b0382166109d35760405163ec442f0560e01b81526000600482015260240161051f565b61060960008383610b81565b6001600160a01b038216610a0957604051634b637e8f60e11b81526000600482015260240161051f565b61060982600083610b81565b600580546001600160a01b03838116610100818102610100600160a81b031985161790945560405193909204169182907f8be0079c531659141344cd1fd0a4f28419497f9722a3daafe3b4186f6b6457e090600090a35050565b610a77610c81565b6005805460ff191660011790557f62e78cea01bee320cd4e420270b5ea74000d11b0c9f74754ebdbfc544b05a25861098c3390565b6001600160a01b038416610ad65760405163e602df0560e01b81526000600482015260240161051f565b6001600160a01b038316610b0057604051634a1406b160e11b81526000600482015260240161051f565b6001600160a01b03808516600090815260016020908152604080832093871683529290522082905580156108bf57826001600160a01b0316846001600160a01b03167f8c5be1e5ebec7d5bd14f71427d1e84f3dd0314c0f7b2291e5b200ac8c7c3b92584604051610b7391815260200190565b60405180910390a350505050565b6001600160a01b03831660009081526007602052604090205460ff1615610bea5760405162461bcd60e51b815260206004820152601a60248201527f4356543a2053656e64657220697320626c61636b6c6973746564000000000000604482015260640161051f565b6001600160a01b03821660009081526007602052604090205460ff1615610c535760405162461bcd60e51b815260206004820152601d60248201527f4356543a20526563697069656e7420697320626c61636b6c6973746564000000604482015260640161051f565b610841838383610ca5565b60055460ff166104ce57604051638dfc202b60e01b815260040160405180910390fd5b60055460ff16156104ce5760405163d93c066560e01b815260040160405180910390fd5b610cad610c81565b6108418383836001600160a01b038316610cde578060026000828254610cd39190610f6b565b90915550610d509050565b6001600160a01b03831660009081526020819052604090205481811015610d315760405163391434e360e21b81526001600160a01b0385166004820152602481018290526044810183905260640161051f565b6001600160a01b03841660009081526020819052604090209082900390555b6001600160a01b038216610d6c57600280548290039055610d8b565b6001600160a01b03821660009081526020819052604090208054820190555b816001600160a01b0316836001600160a01b03167fddf252ad1be2c89b69c2b068fc378daa952ba7f163c4a11628f55a4df523b3ef83604051610dd091815260200190565b60405180910390a3505050565b600060208083528351808285015260005b81811015610e0a57858101830151858201604001528201610dee565b506000604082860101526040601f19601f8301168501019250505092915050565b80356001600160a01b0381168114610e4257600080fd5b919050565b60008060408385031215610e5a57600080fd5b610e6383610e2b565b946020939093013593505050565b600080600060608486031215610e8657600080fd5b610e8f84610e2b565b9250610e9d60208501610e2b565b9150604084013590509250925092565b600060208284031215610ebf57600080fd5b610ec882610e2b565b9392505050565b600060208284031215610ee157600080fd5b5035919050565b60008060408385031215610efb57600080fd5b610f0483610e2b565b9150610f1260208401610e2b565b90509250929050565b600181811c90821680610f2f57607f821691505b602082108103610f4f57634e487b7160e01b600052602260045260246000fd5b50919050565b634e487b7160e01b600052601160045260246000fd5b8082018082111561044357610443610f55565b8181038181111561044357610443610f5556fea26469706673582212203f3f09a2c6955e2b4e3927bcd16666f1fe2cba153ced633832ee6c50a278403864736f6c63430008140033","opcodes":"PUSH1 0x80 PUSH1 0x40 MSTORE CALLVALUE DUP1 ISZERO PUSH3 0x11 JUMPI PUSH1 0x0 DUP1 REVERT JUMPDEST POP CALLER PUSH1 0x40 MLOAD DUP1 PUSH1 0x40 ADD PUSH1 0x40 MSTORE DUP1 PUSH1 0x10 DUP2 MSTORE PUSH1 0x20 ADD PUSH16 0x21BCB132B92B34B9B2B9102A37B5B2B7 PUSH1 0x81 SHL DUP2 MSTORE POP PUSH1 0x40 MLOAD DUP1 PUSH1 0x40 ADD PUSH1 0x40 MSTORE DUP1 PUSH1 0x3 DUP2 MSTORE PUSH1 0x20 ADD PUSH3 0x10D595 PUSH1 0xEA SHL DUP2 MSTORE POP DUP2 PUSH1 0x3 SWAP1 DUP2 PUSH3 0x69 SWAP2 SWAP1 PUSH3 0x4A9 JUMP JUMPDEST POP PUSH1 0x4 PUSH3 0x78 DUP3 DUP3 PUSH3 0x4A9 JUMP JUMPDEST POP POP POP PUSH1 0x1 PUSH1 0x1 PUSH1 0xA0 SHL SUB DUP2 AND PUSH3 0xAB JUMPI PUSH1 0x40 MLOAD PUSH4 0x1E4FBDF7 PUSH1 0xE0 SHL DUP2 MSTORE PUSH1 0x0 PUSH1 0x4 DUP3 ADD MSTORE PUSH1 0x24 ADD JUMPDEST PUSH1 0x40 MLOAD DUP1 SWAP2 SUB SWAP1 REVERT JUMPDEST PUSH3 0xB6 DUP2 PUSH3 0x114 JUMP JUMPDEST POP PUSH3 0xCE CALLER PUSH11 0x18D0BF423C03D8DE000000 PUSH3 0x16E JUMP JUMPDEST CALLER PUSH1 0x0 DUP2 DUP2 MSTORE PUSH1 0x6 PUSH1 0x20 MSTORE PUSH1 0x40 DUP1 DUP3 KECCAK256 DUP1 SLOAD PUSH1 0xFF NOT AND PUSH1 0x1 OR SWAP1 SSTORE MLOAD PUSH32 0x6AE172837EA30B801FBFCDD4108AA1D5BF8FF775444FD70256B44E6BF3DFC3F6 SWAP2 SWAP1 LOG2 PUSH3 0x59D JUMP JUMPDEST PUSH1 0x5 DUP1 SLOAD PUSH1 0x1 PUSH1 0x1 PUSH1 0xA0 SHL SUB DUP4 DUP2 AND PUSH2 0x100 DUP2 DUP2 MUL PUSH2 0x100 PUSH1 0x1 PUSH1 0xA8 SHL SUB NOT DUP6 AND OR SWAP1 SWAP5 SSTORE PUSH1 0x40 MLOAD SWAP4 SWAP1 SWAP3 DIV AND SWAP2 DUP3 SWAP1 PUSH32 0x8BE0079C531659141344CD1FD0A4F28419497F9722A3DAAFE3B4186F6B6457E0 SWAP1 PUSH1 0x0 SWAP1 LOG3 POP POP JUMP JUMPDEST PUSH1 0x1 PUSH1 0x1 PUSH1 0xA0 SHL SUB DUP3 AND PUSH3 0x19A JUMPI PUSH1 0x40 MLOAD PUSH4 0xEC442F05 PUSH1 0xE0 SHL DUP2 MSTORE PUSH1 0x0 PUSH1 0x4 DUP3 ADD MSTORE PUSH1 0x24 ADD PUSH3 0xA2 JUMP JUMPDEST PUSH3 0x1A8 PUSH1 0x0 DUP4 DUP4 PUSH3 0x1AC JUMP JUMPDEST POP POP JUMP JUMPDEST PUSH1 0x1 PUSH1 0x1 PUSH1 0xA0 SHL SUB DUP4 AND PUSH1 0x0 SWAP1 DUP2 MSTORE PUSH1 0x7 PUSH1 0x20 MSTORE PUSH1 0x40 SWAP1 KECCAK256 SLOAD PUSH1 0xFF AND ISZERO PUSH3 0x217 JUMPI PUSH1 0x40 MLOAD PUSH3 0x461BCD PUSH1 0xE5 SHL DUP2 MSTORE PUSH1 0x20 PUSH1 0x4 DUP3 ADD MSTORE PUSH1 0x1A PUSH1 0x24 DUP3 ADD MSTORE PUSH32 0x4356543A2053656E64657220697320626C61636B6C6973746564000000000000 PUSH1 0x44 DUP3 ADD MSTORE PUSH1 0x64 ADD PUSH3 0xA2 JUMP JUMPDEST PUSH1 0x1 PUSH1 0x1 PUSH1 0xA0 SHL SUB DUP3 AND PUSH1 0x0 SWAP1 DUP2 MSTORE PUSH1 0x7 PUSH1 0x20 MSTORE PUSH1 0x40 SWAP1 KECCAK256 SLOAD PUSH1 0xFF AND ISZERO PUSH3 0x282 JUMPI PUSH1 0x40 MLOAD PUSH3 0x461BCD PUSH1 0xE5 SHL DUP2 MSTORE PUSH1 0x20 PUSH1 0x4 DUP3 ADD MSTORE PUSH1 0x1D PUSH1 0x24 DUP3 ADD MSTORE PUSH32 0x4356543A20526563697069656E7420697320626C61636B6C6973746564000000 PUSH1 0x44 DUP3 ADD MSTORE PUSH1 0x64 ADD PUSH3 0xA2 JUMP JUMPDEST PUSH3 0x28F DUP4 DUP4 DUP4 PUSH3 0x294 JUMP JUMPDEST POP POP POP JUMP JUMPDEST PUSH3 0x29E PUSH3 0x2AB JUMP JUMPDEST PUSH3 0x28F DUP4 DUP4 DUP4 PUSH3 0x2D2 JUMP JUMPDEST PUSH1 0x5 SLOAD PUSH1 0xFF AND ISZERO PUSH3 0x2D0 JUMPI PUSH1 0x40 MLOAD PUSH4 0xD93C0665 PUSH1 0xE0 SHL DUP2 MSTORE PUSH1 0x4 ADD PUSH1 0x40 MLOAD DUP1 SWAP2 SUB SWAP1 REVERT JUMPDEST JUMP JUMPDEST PUSH1 0x1 PUSH1 0x1 PUSH1 0xA0 SHL SUB DUP4 AND PUSH3 0x301 JUMPI DUP1 PUSH1 0x2 PUSH1 0x0 DUP3 DUP3 SLOAD PUSH3 0x2F5 SWAP2 SWAP1 PUSH3 0x575 JUMP JUMPDEST SWAP1 SWAP2 SSTORE POP PUSH3 0x375 SWAP1 POP JUMP JUMPDEST PUSH1 0x1 PUSH1 0x1 PUSH1 0xA0 SHL SUB DUP4 AND PUSH1 0x0 SWAP1 DUP2 MSTORE PUSH1 0x20 DUP2 SWAP1 MSTORE PUSH1 0x40 SWAP1 KECCAK256 SLOAD DUP2 DUP2 LT ISZERO PUSH3 0x356 JUMPI PUSH1 0x40 MLOAD PUSH4 0x391434E3 PUSH1 0xE2 SHL DUP2 MSTORE PUSH1 0x1 PUSH1 0x1 PUSH1 0xA0 SHL SUB DUP6 AND PUSH1 0x4 DUP3 ADD MSTORE PUSH1 0x24 DUP2 ADD DUP3 SWAP1 MSTORE PUSH1 0x44 DUP2 ADD DUP4 SWAP1 MSTORE PUSH1 0x64 ADD PUSH3 0xA2 JUMP JUMPDEST PUSH1 0x1 PUSH1 0x1 PUSH1 0xA0 SHL SUB DUP5 AND PUSH1 0x0 SWAP1 DUP2 MSTORE PUSH1 0x20 DUP2 SWAP1 MSTORE PUSH1 0x40 SWAP1 KECCAK256 SWAP1 DUP3 SWAP1 SUB SWAP1 SSTORE JUMPDEST PUSH1 0x1 PUSH1 0x1 PUSH1 0xA0 SHL SUB DUP3 AND PUSH3 0x393 JUMPI PUSH1 0x2 DUP1 SLOAD DUP3 SWAP1 SUB SWAP1 SSTORE PUSH3 0x3B2 JUMP JUMPDEST PUSH1 0x1 PUSH1 0x1 PUSH1 0xA0 SHL SUB DUP3 AND PUSH1 0x0 SWAP1 DUP2 MSTORE PUSH1 0x20 DUP2 SWAP1 MSTORE PUSH1 0x40 SWAP1 KECCAK256 DUP1 SLOAD DUP3 ADD SWAP1 SSTORE JUMPDEST DUP2 PUSH1 0x1 PUSH1 0x1 PUSH1 0xA0 SHL SUB AND DUP4 PUSH1 0x1 PUSH1 0x1 PUSH1 0xA0 SHL SUB AND PUSH32 0xDDF252AD1BE2C89B69C2B068FC378DAA952BA7F163C4A11628F55A4DF523B3EF DUP4 PUSH1 0x40 MLOAD PUSH3 0x3F8 SWAP2 DUP2 MSTORE PUSH1 0x20 ADD SWAP1 JUMP JUMPDEST PUSH1 0x40 MLOAD DUP1 SWAP2 SUB SWAP1 LOG3 POP POP POP JUMP JUMPDEST PUSH4 0x4E487B71 PUSH1 0xE0 SHL PUSH1 0x0 MSTORE PUSH1 0x41 PUSH1 0x4 MSTORE PUSH1 0x24 PUSH1 0x0 REVERT JUMPDEST PUSH1 0x1 DUP2 DUP2 SHR SWAP1 DUP3 AND DUP1 PUSH3 0x430 JUMPI PUSH1 0x7F DUP3 AND SWAP2 POP JUMPDEST PUSH1 0x20 DUP3 LT DUP2 SUB PUSH3 0x451 JUMPI PUSH4 0x4E487B71 PUSH1 0xE0 SHL PUSH1 0x0 MSTORE PUSH1 0x22 PUSH1 0x4 MSTORE PUSH1 0x24 PUSH1 0x0 REVERT JUMPDEST POP SWAP2 SWAP1 POP JUMP JUMPDEST PUSH1 0x1F DUP3 GT ISZERO PUSH3 0x28F JUMPI PUSH1 0x0 DUP2 DUP2 MSTORE PUSH1 0x20 DUP2 KECCAK256 PUSH1 0x1F DUP6 ADD PUSH1 0x5 SHR DUP2 ADD PUSH1 0x20 DUP7 LT ISZERO PUSH3 0x480 JUMPI POP DUP1 JUMPDEST PUSH1 0x1F DUP6 ADD PUSH1 0x5 SHR DUP3 ADD SWAP2 POP JUMPDEST DUP2 DUP2 LT ISZERO PUSH3 0x4A1 JUMPI DUP3 DUP2 SSTORE PUSH1 0x1 ADD PUSH3 0x48C JUMP JUMPDEST POP POP POP POP POP POP JUMP JUMPDEST DUP2 MLOAD PUSH1 0x1 PUSH1 0x1 PUSH1 0x40 SHL SUB DUP2 GT ISZERO PUSH3 0x4C5 JUMPI PUSH3 0x4C5 PUSH3 0x405 JUMP JUMPDEST PUSH3 0x4DD DUP2 PUSH3 0x4D6 DUP5 SLOAD PUSH3 0x41B JUMP JUMPDEST DUP5 PUSH3 0x457 JUMP JUMPDEST PUSH1 0x20 DUP1 PUSH1 0x1F DUP4 GT PUSH1 0x1 DUP2 EQ PUSH3 0x515 JUMPI PUSH1 0x0 DUP5 ISZERO PUSH3 0x4FC JUMPI POP DUP6 DUP4 ADD MLOAD JUMPDEST PUSH1 0x0 NOT PUSH1 0x3 DUP7 SWAP1 SHL SHR NOT AND PUSH1 0x1 DUP6 SWAP1 SHL OR DUP6 SSTORE PUSH3 0x4A1 JUMP JUMPDEST PUSH1 0x0 DUP6 DUP2 MSTORE PUSH1 0x20 DUP2 KECCAK256 PUSH1 0x1F NOT DUP7 AND SWAP2 JUMPDEST DUP3 DUP2 LT ISZERO PUSH3 0x546 JUMPI DUP9 DUP7 ADD MLOAD DUP3 SSTORE SWAP5 DUP5 ADD SWAP5 PUSH1 0x1 SWAP1 SWAP2 ADD SWAP1 DUP5 ADD PUSH3 0x525 JUMP JUMPDEST POP DUP6 DUP3 LT ISZERO PUSH3 0x565 JUMPI DUP8 DUP6 ADD MLOAD PUSH1 0x0 NOT PUSH1 0x3 DUP9 SWAP1 SHL PUSH1 0xF8 AND SHR NOT AND DUP2 SSTORE JUMPDEST POP POP POP POP POP PUSH1 0x1 SWAP1 DUP2 SHL ADD SWAP1 SSTORE POP JUMP JUMPDEST DUP1 DUP3 ADD DUP1 DUP3 GT ISZERO PUSH3 0x597 JUMPI PUSH4 0x4E487B71 PUSH1 0xE0 SHL PUSH1 0x0 MSTORE PUSH1 0x11 PUSH1 0x4 MSTORE PUSH1 0x24 PUSH1 0x0 REVERT JUMPDEST SWAP3 SWAP2 POP POP JUMP JUMPDEST PUSH2 0xFC7 DUP1 PUSH3 0x5AD PUSH1 0x0 CODECOPY PUSH1 0x0 RETURN INVALID PUSH1 0x80 PUSH1 0x40 MSTORE CALLVALUE DUP1 ISZERO PUSH2 0x10 JUMPI PUSH1 0x0 DUP1 REVERT JUMPDEST POP PUSH1 0x4 CALLDATASIZE LT PUSH2 0x173 JUMPI PUSH1 0x0 CALLDATALOAD PUSH1 0xE0 SHR DUP1 PUSH4 0x715018A6 GT PUSH2 0xDE JUMPI DUP1 PUSH4 0xA9059CBB GT PUSH2 0x97 JUMPI DUP1 PUSH4 0xDD62ED3E GT PUSH2 0x71 JUMPI DUP1 PUSH4 0xDD62ED3E EQ PUSH2 0x31B JUMPI DUP1 PUSH4 0xF2FDE38B EQ PUSH2 0x354 JUMPI DUP1 PUSH4 0xF46ECCC4 EQ PUSH2 0x367 JUMPI DUP1 PUSH4 0xF9F92BE4 EQ PUSH2 0x38A JUMPI PUSH1 0x0 DUP1 REVERT JUMPDEST DUP1 PUSH4 0xA9059CBB EQ PUSH2 0x2DD JUMPI DUP1 PUSH4 0xDA0239A6 EQ PUSH2 0x2F0 JUMPI DUP1 PUSH4 0xDBAC26E9 EQ PUSH2 0x2F8 JUMPI PUSH1 0x0 DUP1 REVERT JUMPDEST DUP1 PUSH4 0x715018A6 EQ PUSH2 0x276 JUMPI DUP1 PUSH4 0x8456CB59 EQ PUSH2 0x27E JUMPI DUP1 PUSH4 0x8DA5CB5B EQ PUSH2 0x286 JUMPI DUP1 PUSH4 0x95D89B41 EQ PUSH2 0x2AF JUMPI DUP1 PUSH4 0x983B2D56 EQ PUSH2 0x2B7 JUMPI DUP1 PUSH4 0x9B19251A EQ PUSH2 0x2CA JUMPI PUSH1 0x0 DUP1 REVERT JUMPDEST DUP1 PUSH4 0x32CB6B0C GT PUSH2 0x130 JUMPI DUP1 PUSH4 0x32CB6B0C EQ PUSH2 0x202 JUMPI DUP1 PUSH4 0x3F4BA83A EQ PUSH2 0x214 JUMPI DUP1 PUSH4 0x40C10F19 EQ PUSH2 0x21C JUMPI DUP1 PUSH4 0x42966C68 EQ PUSH2 0x22F JUMPI DUP1 PUSH4 0x5C975ABB EQ PUSH2 0x242 JUMPI DUP1 PUSH4 0x70A08231 EQ PUSH2 0x24D JUMPI PUSH1 0x0 DUP1 REVERT JUMPDEST DUP1 PUSH4 0x6FDDE03 EQ PUSH2 0x178 JUMPI DUP1 PUSH4 0x95EA7B3 EQ PUSH2 0x196 JUMPI DUP1 PUSH4 0x18160DDD EQ PUSH2 0x1B9 JUMPI DUP1 PUSH4 0x23B872DD EQ PUSH2 0x1CB JUMPI DUP1 PUSH4 0x3092AFD5 EQ PUSH2 0x1DE JUMPI DUP1 PUSH4 0x313CE567 EQ PUSH2 0x1F3 JUMPI JUMPDEST PUSH1 0x0 DUP1 REVERT JUMPDEST PUSH2 0x180 PUSH2 0x39D JUMP JUMPDEST PUSH1 0x40 MLOAD PUSH2 0x18D SWAP2 SWAP1 PUSH2 0xDDD JUMP JUMPDEST PUSH1 0x40 MLOAD DUP1 SWAP2 SUB SWAP1 RETURN JUMPDEST PUSH2 0x1A9 PUSH2 0x1A4 CALLDATASIZE PUSH1 0x4 PUSH2 0xE47 JUMP JUMPDEST PUSH2 0x42F JUMP JUMPDEST PUSH1 0x40 MLOAD SWAP1 ISZERO ISZERO DUP2 MSTORE PUSH1 0x20 ADD PUSH2 0x18D JUMP JUMPDEST PUSH1 0x2 SLOAD JUMPDEST PUSH1 0x40 MLOAD SWAP1 DUP2 MSTORE PUSH1 0x20 ADD PUSH2 0x18D JUMP JUMPDEST PUSH2 0x1A9 PUSH2 0x1D9 CALLDATASIZE PUSH1 0x4 PUSH2 0xE71 JUMP JUMPDEST PUSH2 0x449 JUMP JUMPDEST PUSH2 0x1F1 PUSH2 0x1EC CALLDATASIZE PUSH1 0x4 PUSH2 0xEAD JUMP JUMPDEST PUSH2 0x46D JUMP JUMPDEST STOP JUMPDEST PUSH1 0x40 MLOAD PUSH1 0x12 DUP2 MSTORE PUSH1 0x20 ADD PUSH2 0x18D JUMP JUMPDEST PUSH2 0x1BD PUSH11 0x52B7D2DCC80CD2E4000000 DUP2 JUMP JUMPDEST PUSH2 0x1F1 PUSH2 0x4BE JUMP JUMPDEST PUSH2 0x1F1 PUSH2 0x22A CALLDATASIZE PUSH1 0x4 PUSH2 0xE47 JUMP JUMPDEST PUSH2 0x4D0 JUMP JUMPDEST PUSH2 0x1F1 PUSH2 0x23D CALLDATASIZE PUSH1 0x4 PUSH2 0xECF JUMP JUMPDEST PUSH2 0x60D JUMP JUMPDEST PUSH1 0x5 SLOAD PUSH1 0xFF AND PUSH2 0x1A9 JUMP JUMPDEST PUSH2 0x1BD PUSH2 0x25B CALLDATASIZE PUSH1 0x4 PUSH2 0xEAD JUMP JUMPDEST PUSH1 0x1 PUSH1 0x1 PUSH1 0xA0 SHL SUB AND PUSH1 0x0 SWAP1 DUP2 MSTORE PUSH1 0x20 DUP2 SWAP1 MSTORE PUSH1 0x40 SWAP1 KECCAK256 SLOAD SWAP1 JUMP JUMPDEST PUSH2 0x1F1 PUSH2 0x64F JUMP JUMPDEST PUSH2 0x1F1 PUSH2 0x661 JUMP JUMPDEST PUSH1 0x5 SLOAD PUSH2 0x100 SWAP1 DIV PUSH1 0x1 PUSH1 0x1 PUSH1 0xA0 SHL SUB AND PUSH1 0x40 MLOAD PUSH1 0x1 PUSH1 0x1 PUSH1 0xA0 SHL SUB SWAP1 SWAP2 AND DUP2 MSTORE PUSH1 0x20 ADD PUSH2 0x18D JUMP JUMPDEST PUSH2 0x180 PUSH2 0x671 JUMP JUMPDEST PUSH2 0x1F1 PUSH2 0x2C5 CALLDATASIZE PUSH1 0x4 PUSH2 0xEAD JUMP JUMPDEST PUSH2 0x680 JUMP JUMPDEST PUSH2 0x1F1 PUSH2 0x2D8 CALLDATASIZE PUSH1 0x4 PUSH2 0xEAD JUMP JUMPDEST PUSH2 0x71E JUMP JUMPDEST PUSH2 0x1A9 PUSH2 0x2EB CALLDATASIZE PUSH1 0x4 PUSH2 0xE47 JUMP JUMPDEST PUSH2 0x76F JUMP JUMPDEST PUSH2 0x1BD PUSH2 0x77D JUMP JUMPDEST PUSH2 0x1A9 PUSH2 0x306 CALLDATASIZE PUSH1 0x4 PUSH2 0xEAD JUMP JUMPDEST PUSH1 0x7 PUSH1 0x20 MSTORE PUSH1 0x0 SWAP1 DUP2 MSTORE PUSH1 0x40 SWAP1 KECCAK256 SLOAD PUSH1 0xFF AND DUP2 JUMP JUMPDEST PUSH2 0x1BD PUSH2 0x329 CALLDATASIZE PUSH1 0x4 PUSH2 0xEE8 JUMP JUMPDEST PUSH1 0x1 PUSH1 0x1 PUSH1 0xA0 SHL SUB SWAP2 DUP3 AND PUSH1 0x0 SWAP1 DUP2 MSTORE PUSH1 0x1 PUSH1 0x20 SWAP1 DUP2 MSTORE PUSH1 0x40 DUP1 DUP4 KECCAK256 SWAP4 SWAP1 SWAP5 AND DUP3 MSTORE SWAP2 SWAP1 SWAP2 MSTORE KECCAK256 SLOAD SWAP1 JUMP JUMPDEST PUSH2 0x1F1 PUSH2 0x362 CALLDATASIZE PUSH1 0x4 PUSH2 0xEAD JUMP JUMPDEST PUSH2 0x7A2 JUMP JUMPDEST PUSH2 0x1A9 PUSH2 0x375 CALLDATASIZE PUSH1 0x4 PUSH2 0xEAD JUMP JUMPDEST PUSH1 0x6 PUSH1 0x20 MSTORE PUSH1 0x0 SWAP1 DUP2 MSTORE PUSH1 0x40 SWAP1 KECCAK256 SLOAD PUSH1 0xFF AND DUP2 JUMP JUMPDEST PUSH2 0x1F1 PUSH2 0x398 CALLDATASIZE PUSH1 0x4 PUSH2 0xEAD JUMP JUMPDEST PUSH2 0x7E0 JUMP JUMPDEST PUSH1 0x60 PUSH1 0x3 DUP1 SLOAD PUSH2 0x3AC SWAP1 PUSH2 0xF1B JUMP JUMPDEST DUP1 PUSH1 0x1F ADD PUSH1 0x20 DUP1 SWAP2 DIV MUL PUSH1 0x20 ADD PUSH1 0x40 MLOAD SWAP1 DUP2 ADD PUSH1 0x40 MSTORE DUP1 SWAP3 SWAP2 SWAP1 DUP2 DUP2 MSTORE PUSH1 0x20 ADD DUP3 DUP1 SLOAD PUSH2 0x3D8 SWAP1 PUSH2 0xF1B JUMP JUMPDEST DUP1 ISZERO PUSH2 0x425 JUMPI DUP1 PUSH1 0x1F LT PUSH2 0x3FA JUMPI PUSH2 0x100 DUP1 DUP4 SLOAD DIV MUL DUP4 MSTORE SWAP2 PUSH1 0x20 ADD SWAP2 PUSH2 0x425 JUMP JUMPDEST DUP3 ADD SWAP2 SWAP1 PUSH1 0x0 MSTORE PUSH1 0x20 PUSH1 0x0 KECCAK256 SWAP1 JUMPDEST DUP2 SLOAD DUP2 MSTORE SWAP1 PUSH1 0x1 ADD SWAP1 PUSH1 0x20 ADD DUP1 DUP4 GT PUSH2 0x408 JUMPI DUP3 SWAP1 SUB PUSH1 0x1F AND DUP3 ADD SWAP2 JUMPDEST POP POP POP POP POP SWAP1 POP SWAP1 JUMP JUMPDEST PUSH1 0x0 CALLER PUSH2 0x43D DUP2 DUP6 DUP6 PUSH2 0x834 JUMP JUMPDEST PUSH1 0x1 SWAP2 POP POP JUMPDEST SWAP3 SWAP2 POP POP JUMP JUMPDEST PUSH1 0x0 CALLER PUSH2 0x457 DUP6 DUP3 DUP6 PUSH2 0x846 JUMP JUMPDEST PUSH2 0x462 DUP6 DUP6 DUP6 PUSH2 0x8C5 JUMP JUMPDEST POP PUSH1 0x1 SWAP5 SWAP4 POP POP POP POP JUMP JUMPDEST PUSH2 0x475 PUSH2 0x924 JUMP JUMPDEST PUSH1 0x1 PUSH1 0x1 PUSH1 0xA0 SHL SUB DUP2 AND PUSH1 0x0 DUP2 DUP2 MSTORE PUSH1 0x6 PUSH1 0x20 MSTORE PUSH1 0x40 DUP1 DUP3 KECCAK256 DUP1 SLOAD PUSH1 0xFF NOT AND SWAP1 SSTORE MLOAD PUSH32 0xE94479A9F7E1952CC78F2D6BAAB678ADC1B772D936C6583DEF489E524CB66692 SWAP2 SWAP1 LOG2 POP JUMP JUMPDEST PUSH2 0x4C6 PUSH2 0x924 JUMP JUMPDEST PUSH2 0x4CE PUSH2 0x957 JUMP JUMPDEST JUMP JUMPDEST CALLER PUSH1 0x0 SWAP1 DUP2 MSTORE PUSH1 0x6 PUSH1 0x20 MSTORE PUSH1 0x40 SWAP1 KECCAK256 SLOAD PUSH1 0xFF AND PUSH2 0x528 JUMPI PUSH1 0x40 MLOAD PUSH3 0x461BCD PUSH1 0xE5 SHL DUP2 MSTORE PUSH1 0x20 PUSH1 0x4 DUP3 ADD MSTORE PUSH1 0x11 PUSH1 0x24 DUP3 ADD MSTORE PUSH17 0x21AB2A1D102737BA10309036B4B73A32B9 PUSH1 0x79 SHL PUSH1 0x44 DUP3 ADD MSTORE PUSH1 0x64 ADD JUMPDEST PUSH1 0x40 MLOAD DUP1 SWAP2 SUB SWAP1 REVERT JUMPDEST PUSH11 0x52B7D2DCC80CD2E4000000 DUP2 PUSH2 0x53E PUSH1 0x2 SLOAD SWAP1 JUMP JUMPDEST PUSH2 0x548 SWAP2 SWAP1 PUSH2 0xF6B JUMP JUMPDEST GT ISZERO PUSH2 0x596 JUMPI PUSH1 0x40 MLOAD PUSH3 0x461BCD PUSH1 0xE5 SHL DUP2 MSTORE PUSH1 0x20 PUSH1 0x4 DUP3 ADD MSTORE PUSH1 0x18 PUSH1 0x24 DUP3 ADD MSTORE PUSH32 0x4356543A204D617820737570706C792065786365656465640000000000000000 PUSH1 0x44 DUP3 ADD MSTORE PUSH1 0x64 ADD PUSH2 0x51F JUMP JUMPDEST PUSH1 0x1 PUSH1 0x1 PUSH1 0xA0 SHL SUB DUP3 AND PUSH1 0x0 SWAP1 DUP2 MSTORE PUSH1 0x7 PUSH1 0x20 MSTORE PUSH1 0x40 SWAP1 KECCAK256 SLOAD PUSH1 0xFF AND ISZERO PUSH2 0x5FF JUMPI PUSH1 0x40 MLOAD PUSH3 0x461BCD PUSH1 0xE5 SHL DUP2 MSTORE PUSH1 0x20 PUSH1 0x4 DUP3 ADD MSTORE PUSH1 0x1D PUSH1 0x24 DUP3 ADD MSTORE PUSH32 0x4356543A20526563697069656E7420697320626C61636B6C6973746564000000 PUSH1 0x44 DUP3 ADD MSTORE PUSH1 0x64 ADD PUSH2 0x51F JUMP JUMPDEST PUSH2 0x609 DUP3 DUP3 PUSH2 0x9A9 JUMP JUMPDEST POP POP JUMP JUMPDEST PUSH2 0x617 CALLER DUP3 PUSH2 0x9DF JUMP JUMPDEST PUSH1 0x40 MLOAD DUP2 DUP2 MSTORE CALLER SWAP1 PUSH32 0xFD38818F5291BF0BB3A2A48AADC06BA8757865D1DABD804585338AAB3009DCB6 SWAP1 PUSH1 0x20 ADD PUSH1 0x40 MLOAD DUP1 SWAP2 SUB SWAP1 LOG2 POP JUMP JUMPDEST PUSH2 0x657 PUSH2 0x924 JUMP JUMPDEST PUSH2 0x4CE PUSH1 0x0 PUSH2 0xA15 JUMP JUMPDEST PUSH2 0x669 PUSH2 0x924 JUMP JUMPDEST PUSH2 0x4CE PUSH2 0xA6F JUMP JUMPDEST PUSH1 0x60 PUSH1 0x4 DUP1 SLOAD PUSH2 0x3AC SWAP1 PUSH2 0xF1B JUMP JUMPDEST PUSH2 0x688 PUSH2 0x924 JUMP JUMPDEST PUSH1 0x1 PUSH1 0x1 PUSH1 0xA0 SHL SUB DUP2 AND PUSH2 0x6D2 JUMPI PUSH1 0x40 MLOAD PUSH3 0x461BCD PUSH1 0xE5 SHL DUP2 MSTORE PUSH1 0x20 PUSH1 0x4 DUP3 ADD MSTORE PUSH1 0x11 PUSH1 0x24 DUP3 ADD MSTORE PUSH17 0x4356543A205A65726F2061646472657373 PUSH1 0x78 SHL PUSH1 0x44 DUP3 ADD MSTORE PUSH1 0x64 ADD PUSH2 0x51F JUMP JUMPDEST PUSH1 0x1 PUSH1 0x1 PUSH1 0xA0 SHL SUB DUP2 AND PUSH1 0x0 DUP2 DUP2 MSTORE PUSH1 0x6 PUSH1 0x20 MSTORE PUSH1 0x40 DUP1 DUP3 KECCAK256 DUP1 SLOAD PUSH1 0xFF NOT AND PUSH1 0x1 OR SWAP1 SSTORE MLOAD PUSH32 0x6AE172837EA30B801FBFCDD4108AA1D5BF8FF775444FD70256B44E6BF3DFC3F6 SWAP2 SWAP1 LOG2 POP JUMP JUMPDEST PUSH2 0x726 PUSH2 0x924 JUMP JUMPDEST PUSH1 0x1 PUSH1 0x1 PUSH1 0xA0 SHL SUB DUP2 AND PUSH1 0x0 DUP2 DUP2 MSTORE PUSH1 0x7 PUSH1 0x20 MSTORE PUSH1 0x40 DUP1 DUP3 KECCAK256 DUP1 SLOAD PUSH1 0xFF NOT AND SWAP1 SSTORE MLOAD PUSH32 0x4F783C179409B4127238BC9C990BC99B9A651666A0D20B51D6C42849EB88466D SWAP2 SWAP1 LOG2 POP JUMP JUMPDEST PUSH1 0x0 CALLER PUSH2 0x43D DUP2 DUP6 DUP6 PUSH2 0x8C5 JUMP JUMPDEST PUSH1 0x0 PUSH2 0x788 PUSH1 0x2 SLOAD SWAP1 JUMP JUMPDEST PUSH2 0x79D SWAP1 PUSH11 0x52B7D2DCC80CD2E4000000 PUSH2 0xF7E JUMP JUMPDEST SWAP1 POP SWAP1 JUMP JUMPDEST PUSH2 0x7AA PUSH2 0x924 JUMP JUMPDEST PUSH1 0x1 PUSH1 0x1 PUSH1 0xA0 SHL SUB DUP2 AND PUSH2 0x7D4 JUMPI PUSH1 0x40 MLOAD PUSH4 0x1E4FBDF7 PUSH1 0xE0 SHL DUP2 MSTORE PUSH1 0x0 PUSH1 0x4 DUP3 ADD MSTORE PUSH1 0x24 ADD PUSH2 0x51F JUMP JUMPDEST PUSH2 0x7DD DUP2 PUSH2 0xA15 JUMP JUMPDEST POP JUMP JUMPDEST PUSH2 0x7E8 PUSH2 0x924 JUMP JUMPDEST PUSH1 0x1 PUSH1 0x1 PUSH1 0xA0 SHL SUB DUP2 AND PUSH1 0x0 DUP2 DUP2 MSTORE PUSH1 0x7 PUSH1 0x20 MSTORE PUSH1 0x40 DUP1 DUP3 KECCAK256 DUP1 SLOAD PUSH1 0xFF NOT AND PUSH1 0x1 OR SWAP1 SSTORE MLOAD PUSH32 0xDAF49AB9345B6CB75BCB5A7F726BFF9183C34DCF5C098C385730F9FD893765F6 SWAP2 SWAP1 LOG2 POP JUMP JUMPDEST PUSH2 0x841 DUP4 DUP4 DUP4 PUSH1 0x1 PUSH2 0xAAC JUMP JUMPDEST POP POP POP JUMP JUMPDEST PUSH1 0x1 PUSH1 0x1 PUSH1 0xA0 SHL SUB DUP4 DUP2 AND PUSH1 0x0 SWAP1 DUP2 MSTORE PUSH1 0x1 PUSH1 0x20 SWAP1 DUP2 MSTORE PUSH1 0x40 DUP1 DUP4 KECCAK256 SWAP4 DUP7 AND DUP4 MSTORE SWAP3 SWAP1 MSTORE KECCAK256 SLOAD PUSH1 0x0 NOT DUP2 LT ISZERO PUSH2 0x8BF JUMPI DUP2 DUP2 LT ISZERO PUSH2 0x8B0 JUMPI PUSH1 0x40 MLOAD PUSH4 0x7DC7A0D9 PUSH1 0xE1 SHL DUP2 MSTORE PUSH1 0x1 PUSH1 0x1 PUSH1 0xA0 SHL SUB DUP5 AND PUSH1 0x4 DUP3 ADD MSTORE PUSH1 0x24 DUP2 ADD DUP3 SWAP1 MSTORE PUSH1 0x44 DUP2 ADD DUP4 SWAP1 MSTORE PUSH1 0x64 ADD PUSH2 0x51F JUMP JUMPDEST PUSH2 0x8BF DUP5 DUP5 DUP5 DUP5 SUB PUSH1 0x0 PUSH2 0xAAC JUMP JUMPDEST POP POP POP POP JUMP JUMPDEST PUSH1 0x1 PUSH1 0x1 PUSH1 0xA0 SHL SUB DUP4 AND PUSH2 0x8EF JUMPI PUSH1 0x40 MLOAD PUSH4 0x4B637E8F PUSH1 0xE1 SHL DUP2 MSTORE PUSH1 0x0 PUSH1 0x4 DUP3 ADD MSTORE PUSH1 0x24 ADD PUSH2 0x51F JUMP JUMPDEST PUSH1 0x1 PUSH1 0x1 PUSH1 0xA0 SHL SUB DUP3 AND PUSH2 0x919 JUMPI PUSH1 0x40 MLOAD PUSH4 0xEC442F05 PUSH1 0xE0 SHL DUP2 MSTORE PUSH1 0x0 PUSH1 0x4 DUP3 ADD MSTORE PUSH1 0x24 ADD PUSH2 0x51F JUMP JUMPDEST PUSH2 0x841 DUP4 DUP4 DUP4 PUSH2 0xB81 JUMP JUMPDEST PUSH1 0x5 SLOAD PUSH1 0x1 PUSH1 0x1 PUSH1 0xA0 SHL SUB PUSH2 0x100 SWAP1 SWAP2 DIV AND CALLER EQ PUSH2 0x4CE JUMPI PUSH1 0x40 MLOAD PUSH4 0x118CDAA7 PUSH1 0xE0 SHL DUP2 MSTORE CALLER PUSH1 0x4 DUP3 ADD MSTORE PUSH1 0x24 ADD PUSH2 0x51F JUMP JUMPDEST PUSH2 0x95F PUSH2 0xC5E JUMP JUMPDEST PUSH1 0x5 DUP1 SLOAD PUSH1 0xFF NOT AND SWAP1 SSTORE PUSH32 0x5DB9EE0A495BF2E6FF9C91A7834C1BA4FDD244A5E8AA4E537BD38AEAE4B073AA CALLER JUMPDEST PUSH1 0x40 MLOAD PUSH1 0x1 PUSH1 0x1 PUSH1 0xA0 SHL SUB SWAP1 SWAP2 AND DUP2 MSTORE PUSH1 0x20 ADD PUSH1 0x40 MLOAD DUP1 SWAP2 SUB SWAP1 LOG1 JUMP JUMPDEST PUSH1 0x1 PUSH1 0x1 PUSH1 0xA0 SHL SUB DUP3 AND PUSH2 0x9D3 JUMPI PUSH1 0x40 MLOAD PUSH4 0xEC442F05 PUSH1 0xE0 SHL DUP2 MSTORE PUSH1 0x0 PUSH1 0x4 DUP3 ADD MSTORE PUSH1 0x24 ADD PUSH2 0x51F JUMP JUMPDEST PUSH2 0x609 PUSH1 0x0 DUP4 DUP4 PUSH2 0xB81 JUMP JUMPDEST PUSH1 0x1 PUSH1 0x1 PUSH1 0xA0 SHL SUB DUP3 AND PUSH2 0xA09 JUMPI PUSH1 0x40 MLOAD PUSH4 0x4B637E8F PUSH1 0xE1 SHL DUP2 MSTORE PUSH1 0x0 PUSH1 0x4 DUP3 ADD MSTORE PUSH1 0x24 ADD PUSH2 0x51F JUMP JUMPDEST PUSH2 0x609 DUP3 PUSH1 0x0 DUP4 PUSH2 0xB81 JUMP JUMPDEST PUSH1 0x5 DUP1 SLOAD PUSH1 0x1 PUSH1 0x1 PUSH1 0xA0 SHL SUB DUP4 DUP2 AND PUSH2 0x100 DUP2 DUP2 MUL PUSH2 0x100 PUSH1 0x1 PUSH1 0xA8 SHL SUB NOT DUP6 AND OR SWAP1 SWAP5 SSTORE PUSH1 0x40 MLOAD SWAP4 SWAP1 SWAP3 DIV AND SWAP2 DUP3 SWAP1 PUSH32 0x8BE0079C531659141344CD1FD0A4F28419497F9722A3DAAFE3B4186F6B6457E0 SWAP1 PUSH1 0x0 SWAP1 LOG3 POP POP JUMP JUMPDEST PUSH2 0xA77 PUSH2 0xC81 JUMP JUMPDEST PUSH1 0x5 DUP1 SLOAD PUSH1 0xFF NOT AND PUSH1 0x1 OR SWAP1 SSTORE PUSH32 0x62E78CEA01BEE320CD4E420270B5EA74000D11B0C9F74754EBDBFC544B05A258 PUSH2 0x98C CALLER SWAP1 JUMP JUMPDEST PUSH1 0x1 PUSH1 0x1 PUSH1 0xA0 SHL SUB DUP5 AND PUSH2 0xAD6 JUMPI PUSH1 0x40 MLOAD PUSH4 0xE602DF05 PUSH1 0xE0 SHL DUP2 MSTORE PUSH1 0x0 PUSH1 0x4 DUP3 ADD MSTORE PUSH1 0x24 ADD PUSH2 0x51F JUMP JUMPDEST PUSH1 0x1 PUSH1 0x1 PUSH1 0xA0 SHL SUB DUP4 AND PUSH2 0xB00 JUMPI PUSH1 0x40 MLOAD PUSH4 0x4A1406B1 PUSH1 0xE1 SHL DUP2 MSTORE PUSH1 0x0 PUSH1 0x4 DUP3 ADD MSTORE PUSH1 0x24 ADD PUSH2 0x51F JUMP JUMPDEST PUSH1 0x1 PUSH1 0x1 PUSH1 0xA0 SHL SUB DUP1 DUP6 AND PUSH1 0x0 SWAP1 DUP2 MSTORE PUSH1 0x1 PUSH1 0x20 SWAP1 DUP2 MSTORE PUSH1 0x40 DUP1 DUP4 KECCAK256 SWAP4 DUP8 AND DUP4 MSTORE SWAP3 SWAP1 MSTORE KECCAK256 DUP3 SWAP1 SSTORE DUP1 ISZERO PUSH2 0x8BF JUMPI DUP3 PUSH1 0x1 PUSH1 0x1 PUSH1 0xA0 SHL SUB AND DUP5 PUSH1 0x1 PUSH1 0x1 PUSH1 0xA0 SHL SUB AND PUSH32 0x8C5BE1E5EBEC7D5BD14F71427D1E84F3DD0314C0F7B2291E5B200AC8C7C3B925 DUP5 PUSH1 0x40 MLOAD PUSH2 0xB73 SWAP2 DUP2 MSTORE PUSH1 0x20 ADD SWAP1 JUMP JUMPDEST PUSH1 0x40 MLOAD DUP1 SWAP2 SUB SWAP1 LOG3 POP POP POP POP JUMP JUMPDEST PUSH1 0x1 PUSH1 0x1 PUSH1 0xA0 SHL SUB DUP4 AND PUSH1 0x0 SWAP1 DUP2 MSTORE PUSH1 0x7 PUSH1 0x20 MSTORE PUSH1 0x40 SWAP1 KECCAK256 SLOAD PUSH1 0xFF AND ISZERO PUSH2 0xBEA JUMPI PUSH1 0x40 MLOAD PUSH3 0x461BCD PUSH1 0xE5 SHL DUP2 MSTORE PUSH1 0x20 PUSH1 0x4 DUP3 ADD MSTORE PUSH1 0x1A PUSH1 0x24 DUP3 ADD MSTORE PUSH32 0x4356543A2053656E64657220697320626C61636B6C6973746564000000000000 PUSH1 0x44 DUP3 ADD MSTORE PUSH1 0x64 ADD PUSH2 0x51F JUMP JUMPDEST PUSH1 0x1 PUSH1 0x1 PUSH1 0xA0 SHL SUB DUP3 AND PUSH1 0x0 SWAP1 DUP2 MSTORE PUSH1 0x7 PUSH1 0x20 MSTORE PUSH1 0x40 SWAP1 KECCAK256 SLOAD PUSH1 0xFF AND ISZERO PUSH2 0xC53 JUMPI PUSH1 0x40 MLOAD PUSH3 0x461BCD PUSH1 0xE5 SHL DUP2 MSTORE PUSH1 0x20 PUSH1 0x4 DUP3 ADD MSTORE PUSH1 0x1D PUSH1 0x24 DUP3 ADD MSTORE PUSH32 0x4356543A20526563697069656E7420697320626C61636B6C6973746564000000 PUSH1 0x44 DUP3 ADD MSTORE PUSH1 0x64 ADD PUSH2 0x51F JUMP JUMPDEST PUSH2 0x841 DUP4 DUP4 DUP4 PUSH2 0xCA5 JUMP JUMPDEST PUSH1 0x5 SLOAD PUSH1 0xFF AND PUSH2 0x4CE JUMPI PUSH1 0x40 MLOAD PUSH4 0x8DFC202B PUSH1 0xE0 SHL DUP2 MSTORE PUSH1 0x4 ADD PUSH1 0x40 MLOAD DUP1 SWAP2 SUB SWAP1 REVERT JUMPDEST PUSH1 0x5 SLOAD PUSH1 0xFF AND ISZERO PUSH2 0x4CE JUMPI PUSH1 0x40 MLOAD PUSH4 0xD93C0665 PUSH1 0xE0 SHL DUP2 MSTORE PUSH1 0x4 ADD PUSH1 0x40 MLOAD DUP1 SWAP2 SUB SWAP1 REVERT JUMPDEST PUSH2 0xCAD PUSH2 0xC81 JUMP JUMPDEST PUSH2 0x841 DUP4 DUP4 DUP4 PUSH1 0x1 PUSH1 0x1 PUSH1 0xA0 SHL SUB DUP4 AND PUSH2 0xCDE JUMPI DUP1 PUSH1 0x2 PUSH1 0x0 DUP3 DUP3 SLOAD PUSH2 0xCD3 SWAP2 SWAP1 PUSH2 0xF6B JUMP JUMPDEST SWAP1 SWAP2 SSTORE POP PUSH2 0xD50 SWAP1 POP JUMP JUMPDEST PUSH1 0x1 PUSH1 0x1 PUSH1 0xA0 SHL SUB DUP4 AND PUSH1 0x0 SWAP1 DUP2 MSTORE PUSH1 0x20 DUP2 SWAP1 MSTORE PUSH1 0x40 SWAP1 KECCAK256 SLOAD DUP2 DUP2 LT ISZERO PUSH2 0xD31 JUMPI PUSH1 0x40 MLOAD PUSH4 0x391434E3 PUSH1 0xE2 SHL DUP2 MSTORE PUSH1 0x1 PUSH1 0x1 PUSH1 0xA0 SHL SUB DUP6 AND PUSH1 0x4 DUP3 ADD MSTORE PUSH1 0x24 DUP2 ADD DUP3 SWAP1 MSTORE PUSH1 0x44 DUP2 ADD DUP4 SWAP1 MSTORE PUSH1 0x64 ADD PUSH2 0x51F JUMP JUMPDEST PUSH1 0x1 PUSH1 0x1 PUSH1 0xA0 SHL SUB DUP5 AND PUSH1 0x0 SWAP1 DUP2 MSTORE PUSH1 0x20 DUP2 SWAP1 MSTORE PUSH1 0x40 SWAP1 KECCAK256 SWAP1 DUP3 SWAP1 SUB SWAP1 SSTORE JUMPDEST PUSH1 0x1 PUSH1 0x1 PUSH1 0xA0 SHL SUB DUP3 AND PUSH2 0xD6C JUMPI PUSH1 0x2 DUP1 SLOAD DUP3 SWAP1 SUB SWAP1 SSTORE PUSH2 0xD8B JUMP JUMPDEST PUSH1 0x1 PUSH1 0x1 PUSH1 0xA0 SHL SUB DUP3 AND PUSH1 0x0 SWAP1 DUP2 MSTORE PUSH1 0x20 DUP2 SWAP1 MSTORE PUSH1 0x40 SWAP1 KECCAK256 DUP1 SLOAD DUP3 ADD SWAP1 SSTORE JUMPDEST DUP2 PUSH1 0x1 PUSH1 0x1 PUSH1 0xA0 SHL SUB AND DUP4 PUSH1 0x1 PUSH1 0x1 PUSH1 0xA0 SHL SUB AND PUSH32 0xDDF252AD1BE2C89B69C2B068FC378DAA952BA7F163C4A11628F55A4DF523B3EF DUP4 PUSH1 0x40 MLOAD PUSH2 0xDD0 SWAP2 DUP2 MSTORE PUSH1 0x20 ADD SWAP1 JUMP JUMPDEST PUSH1 0x40 MLOAD DUP1 SWAP2 SUB SWAP1 LOG3 POP POP POP JUMP JUMPDEST PUSH1 0x0 PUSH1 0x20 DUP1 DUP4 MSTORE DUP4 MLOAD DUP1 DUP3 DUP6 ADD MSTORE PUSH1 0x0 JUMPDEST DUP2 DUP2 LT ISZERO PUSH2 0xE0A JUMPI DUP6 DUP2 ADD DUP4 ADD MLOAD DUP6 DUP3 ADD PUSH1 0x40 ADD MSTORE DUP3 ADD PUSH2 0xDEE JUMP JUMPDEST POP PUSH1 0x0 PUSH1 0x40 DUP3 DUP7 ADD ADD MSTORE PUSH1 0x40 PUSH1 0x1F NOT PUSH1 0x1F DUP4 ADD AND DUP6 ADD ADD SWAP3 POP POP POP SWAP3 SWAP2 POP POP JUMP JUMPDEST DUP1 CALLDATALOAD PUSH1 0x1 PUSH1 0x1 PUSH1 0xA0 SHL SUB DUP2 AND DUP2 EQ PUSH2 0xE42 JUMPI PUSH1 0x0 DUP1 REVERT JUMPDEST SWAP2 SWAP1 POP JUMP JUMPDEST PUSH1 0x0 DUP1 PUSH1 0x40 DUP4 DUP6 SUB SLT ISZERO PUSH2 0xE5A JUMPI PUSH1 0x0 DUP1 REVERT JUMPDEST PUSH2 0xE63 DUP4 PUSH2 0xE2B JUMP JUMPDEST SWAP5 PUSH1 0x20 SWAP4 SWAP1 SWAP4 ADD CALLDATALOAD SWAP4 POP POP POP JUMP JUMPDEST PUSH1 0x0 DUP1 PUSH1 0x0 PUSH1 0x60 DUP5 DUP7 SUB SLT ISZERO PUSH2 0xE86 JUMPI PUSH1 0x0 DUP1 REVERT JUMPDEST PUSH2 0xE8F DUP5 PUSH2 0xE2B JUMP JUMPDEST SWAP3 POP PUSH2 0xE9D PUSH1 0x20 DUP6 ADD PUSH2 0xE2B JUMP JUMPDEST SWAP2 POP PUSH1 0x40 DUP5 ADD CALLDATALOAD SWAP1 POP SWAP3 POP SWAP3 POP SWAP3 JUMP JUMPDEST PUSH1 0x0 PUSH1 0x20 DUP3 DUP5 SUB SLT ISZERO PUSH2 0xEBF JUMPI PUSH1 0x0 DUP1 REVERT JUMPDEST PUSH2 0xEC8 DUP3 PUSH2 0xE2B JUMP JUMPDEST SWAP4 SWAP3 POP POP POP JUMP JUMPDEST PUSH1 0x0 PUSH1 0x20 DUP3 DUP5 SUB SLT ISZERO PUSH2 0xEE1 JUMPI PUSH1 0x0 DUP1 REVERT JUMPDEST POP CALLDATALOAD SWAP2 SWAP1 POP JUMP JUMPDEST PUSH1 0x0 DUP1 PUSH1 0x40 DUP4 DUP6 SUB SLT ISZERO PUSH2 0xEFB JUMPI PUSH1 0x0 DUP1 REVERT JUMPDEST PUSH2 0xF04 DUP4 PUSH2 0xE2B JUMP JUMPDEST SWAP2 POP PUSH2 0xF12 PUSH1 0x20 DUP5 ADD PUSH2 0xE2B JUMP JUMPDEST SWAP1 POP SWAP3 POP SWAP3 SWAP1 POP JUMP JUMPDEST PUSH1 0x1 DUP2 DUP2 SHR SWAP1 DUP3 AND DUP1 PUSH2 0xF2F JUMPI PUSH1 0x7F DUP3 AND SWAP2 POP JUMPDEST PUSH1 0x20 DUP3 LT DUP2 SUB PUSH2 0xF4F JUMPI PUSH4 0x4E487B71 PUSH1 0xE0 SHL PUSH1 0x0 MSTORE PUSH1 0x22 PUSH1 0x4 MSTORE PUSH1 0x24 PUSH1 0x0 REVERT JUMPDEST POP SWAP2 SWAP1 POP JUMP JUMPDEST PUSH4 0x4E487B71 PUSH1 0xE0 SHL PUSH1 0x0 MSTORE PUSH1 0x11 PUSH1 0x4 MSTORE PUSH1 0x24 PUSH1 0x0 REVERT JUMPDEST DUP1 DUP3 ADD DUP1 DUP3 GT ISZERO PUSH2 0x443 JUMPI PUSH2 0x443 PUSH2 0xF55 JUMP JUMPDEST DUP2 DUP2 SUB DUP2 DUP2 GT ISZERO PUSH2 0x443 JUMPI PUSH2 0x443 PUSH2 0xF55 JUMP INVALID LOG2 PUSH5 0x6970667358 0x22 SLT KECCAK256 EXTCODEHASH EXTCODEHASH MULMOD LOG2 0xC6 SWAP6 0x5E 0x2B 0x4E CODECOPY 0x27 0xBC 0xD1 PUSH7 0x66F1FE2CBA153C 0xED PUSH4 0x3832EE6C POP LOG2 PUSH25 0x403864736F6C63430008140033000000000000000000000000 "},"methodIdentifiers":{"MAX_SUPPLY()":"32cb6b0c","addMinter(address)":"983b2d56","allowance(address,address)":"dd62ed3e","approve(address,uint256)":"095ea7b3","balanceOf(address)":"70a08231","blacklist(address)":"f9f92be4","blacklisted(address)":"dbac26e9","burn(uint256)":"42966c68","decimals()":"313ce567","mint(address,uint256)":"40c10f19","minters(address)":"f46eccc4","name()":"06fdde03","owner()":"8da5cb5b","pause()":"8456cb59","paused()":"5c975abb","remainingSupply()":"da0239a6","removeMinter(address)":"3092afd5","renounceOwnership()":"715018a6","symbol()":"95d89b41","totalSupply()":"18160ddd","transfer(address,uint256)":"a9059cbb","transferFrom(address,address,uint256)":"23b872dd","transferOwnership(address)":"f2fde38b","unpause()":"3f4ba83a","whitelist(address)":"9b19251a"}}}}}